{
  "contractName": "CrowdOwned",
  "abi": [
    {
      "constant": true,
      "inputs": [],
      "name": "name",
      "outputs": [
        {
          "name": "",
          "type": "string"
        }
      ],
      "payable": false,
      "stateMutability": "view",
      "type": "function"
    },
    {
      "constant": false,
      "inputs": [
        {
          "name": "_spender",
          "type": "address"
        },
        {
          "name": "_value",
          "type": "uint256"
        }
      ],
      "name": "approve",
      "outputs": [
        {
          "name": "",
          "type": "bool"
        }
      ],
      "payable": false,
      "stateMutability": "nonpayable",
      "type": "function"
    },
    {
      "constant": true,
      "inputs": [
        {
          "name": "",
          "type": "uint256"
        }
      ],
      "name": "ownerAddresses",
      "outputs": [
        {
          "name": "",
          "type": "address"
        }
      ],
      "payable": false,
      "stateMutability": "view",
      "type": "function"
    },
    {
      "constant": true,
      "inputs": [],
      "name": "totalSupply",
      "outputs": [
        {
          "name": "",
          "type": "uint256"
        }
      ],
      "payable": false,
      "stateMutability": "view",
      "type": "function"
    },
    {
      "constant": true,
      "inputs": [],
      "name": "crowdOwnedExchange",
      "outputs": [
        {
          "name": "",
          "type": "address"
        }
      ],
      "payable": false,
      "stateMutability": "view",
      "type": "function"
    },
    {
      "constant": true,
      "inputs": [],
      "name": "INITIAL_SUPPLY",
      "outputs": [
        {
          "name": "",
          "type": "uint256"
        }
      ],
      "payable": false,
      "stateMutability": "view",
      "type": "function"
    },
    {
      "constant": false,
      "inputs": [
        {
          "name": "_spender",
          "type": "address"
        },
        {
          "name": "_subtractedValue",
          "type": "uint256"
        }
      ],
      "name": "decreaseApproval",
      "outputs": [
        {
          "name": "",
          "type": "bool"
        }
      ],
      "payable": false,
      "stateMutability": "nonpayable",
      "type": "function"
    },
    {
      "constant": true,
      "inputs": [
        {
          "name": "_owner",
          "type": "address"
        }
      ],
      "name": "balanceOf",
      "outputs": [
        {
          "name": "",
          "type": "uint256"
        }
      ],
      "payable": false,
      "stateMutability": "view",
      "type": "function"
    },
    {
      "constant": false,
      "inputs": [],
      "name": "renounceOwnership",
      "outputs": [],
      "payable": false,
      "stateMutability": "nonpayable",
      "type": "function"
    },
    {
      "constant": true,
      "inputs": [],
      "name": "registry",
      "outputs": [
        {
          "name": "",
          "type": "address"
        }
      ],
      "payable": false,
      "stateMutability": "view",
      "type": "function"
    },
    {
      "constant": true,
      "inputs": [],
      "name": "owner",
      "outputs": [
        {
          "name": "",
          "type": "address"
        }
      ],
      "payable": false,
      "stateMutability": "view",
      "type": "function"
    },
    {
      "constant": true,
      "inputs": [
        {
          "name": "",
          "type": "uint256"
        }
      ],
      "name": "valuationBlockheights",
      "outputs": [
        {
          "name": "",
          "type": "uint256"
        }
      ],
      "payable": false,
      "stateMutability": "view",
      "type": "function"
    },
    {
      "constant": true,
      "inputs": [],
      "name": "symbol",
      "outputs": [
        {
          "name": "",
          "type": "string"
        }
      ],
      "payable": false,
      "stateMutability": "view",
      "type": "function"
    },
    {
      "constant": true,
      "inputs": [],
      "name": "imageUrl",
      "outputs": [
        {
          "name": "",
          "type": "string"
        }
      ],
      "payable": false,
      "stateMutability": "view",
      "type": "function"
    },
    {
      "constant": true,
      "inputs": [
        {
          "name": "",
          "type": "uint256"
        }
      ],
      "name": "valuationsData",
      "outputs": [
        {
          "name": "currency",
          "type": "bytes32"
        },
        {
          "name": "value",
          "type": "uint256"
        },
        {
          "name": "isValuation",
          "type": "bool"
        }
      ],
      "payable": false,
      "stateMutability": "view",
      "type": "function"
    },
    {
      "constant": false,
      "inputs": [
        {
          "name": "_spender",
          "type": "address"
        },
        {
          "name": "_addedValue",
          "type": "uint256"
        }
      ],
      "name": "increaseApproval",
      "outputs": [
        {
          "name": "",
          "type": "bool"
        }
      ],
      "payable": false,
      "stateMutability": "nonpayable",
      "type": "function"
    },
    {
      "constant": true,
      "inputs": [
        {
          "name": "_owner",
          "type": "address"
        },
        {
          "name": "_spender",
          "type": "address"
        }
      ],
      "name": "allowance",
      "outputs": [
        {
          "name": "",
          "type": "uint256"
        }
      ],
      "payable": false,
      "stateMutability": "view",
      "type": "function"
    },
    {
      "constant": false,
      "inputs": [
        {
          "name": "_newOwner",
          "type": "address"
        }
      ],
      "name": "transferOwnership",
      "outputs": [],
      "payable": false,
      "stateMutability": "nonpayable",
      "type": "function"
    },
    {
      "inputs": [
        {
          "name": "_name",
          "type": "string"
        },
        {
          "name": "_symbol",
          "type": "string"
        },
        {
          "name": "_imageUrl",
          "type": "string"
        },
        {
          "name": "_owner",
          "type": "address"
        },
        {
          "name": "_registry",
          "type": "address"
        },
        {
          "name": "_crowdOwnedExchange",
          "type": "address"
        }
      ],
      "payable": false,
      "stateMutability": "nonpayable",
      "type": "constructor"
    },
    {
      "payable": true,
      "stateMutability": "payable",
      "type": "fallback"
    },
    {
      "anonymous": false,
      "inputs": [
        {
          "indexed": true,
          "name": "_blockheight",
          "type": "uint256"
        },
        {
          "indexed": false,
          "name": "_currency",
          "type": "bytes32"
        },
        {
          "indexed": false,
          "name": "_value",
          "type": "uint256"
        }
      ],
      "name": "ValuationSaved",
      "type": "event"
    },
    {
      "anonymous": false,
      "inputs": [
        {
          "indexed": true,
          "name": "_blockheight",
          "type": "uint256"
        }
      ],
      "name": "ValuationDeleted",
      "type": "event"
    },
    {
      "anonymous": false,
      "inputs": [
        {
          "indexed": true,
          "name": "_sender",
          "type": "address"
        },
        {
          "indexed": false,
          "name": "_blockheight",
          "type": "uint256"
        },
        {
          "indexed": false,
          "name": "_value",
          "type": "uint256"
        }
      ],
      "name": "EthPaymentReceived",
      "type": "event"
    },
    {
      "anonymous": false,
      "inputs": [
        {
          "indexed": true,
          "name": "previousOwner",
          "type": "address"
        }
      ],
      "name": "OwnershipRenounced",
      "type": "event"
    },
    {
      "anonymous": false,
      "inputs": [
        {
          "indexed": true,
          "name": "previousOwner",
          "type": "address"
        },
        {
          "indexed": true,
          "name": "newOwner",
          "type": "address"
        }
      ],
      "name": "OwnershipTransferred",
      "type": "event"
    },
    {
      "anonymous": false,
      "inputs": [
        {
          "indexed": true,
          "name": "owner",
          "type": "address"
        },
        {
          "indexed": true,
          "name": "spender",
          "type": "address"
        },
        {
          "indexed": false,
          "name": "value",
          "type": "uint256"
        }
      ],
      "name": "Approval",
      "type": "event"
    },
    {
      "anonymous": false,
      "inputs": [
        {
          "indexed": true,
          "name": "from",
          "type": "address"
        },
        {
          "indexed": true,
          "name": "to",
          "type": "address"
        },
        {
          "indexed": false,
          "name": "value",
          "type": "uint256"
        }
      ],
      "name": "Transfer",
      "type": "event"
    },
    {
      "constant": false,
      "inputs": [
        {
          "name": "_registry",
          "type": "address"
        }
      ],
      "name": "setRegistry",
      "outputs": [],
      "payable": false,
      "stateMutability": "nonpayable",
      "type": "function"
    },
    {
      "constant": false,
      "inputs": [
        {
          "name": "_to",
          "type": "address"
        },
        {
          "name": "_value",
          "type": "uint256"
        }
      ],
      "name": "transfer",
      "outputs": [
        {
          "name": "",
          "type": "bool"
        }
      ],
      "payable": false,
      "stateMutability": "nonpayable",
      "type": "function"
    },
    {
      "constant": false,
      "inputs": [
        {
          "name": "_from",
          "type": "address"
        },
        {
          "name": "_to",
          "type": "address"
        },
        {
          "name": "_value",
          "type": "uint256"
        }
      ],
      "name": "transferFrom",
      "outputs": [
        {
          "name": "",
          "type": "bool"
        }
      ],
      "payable": false,
      "stateMutability": "nonpayable",
      "type": "function"
    },
    {
      "constant": true,
      "inputs": [
        {
          "name": "_to",
          "type": "address"
        }
      ],
      "name": "isValidTransfer",
      "outputs": [
        {
          "name": "",
          "type": "bool"
        }
      ],
      "payable": false,
      "stateMutability": "view",
      "type": "function"
    },
    {
      "constant": true,
      "inputs": [],
      "name": "circulatingSupply",
      "outputs": [
        {
          "name": "",
          "type": "uint256"
        }
      ],
      "payable": false,
      "stateMutability": "view",
      "type": "function"
    },
    {
      "constant": true,
      "inputs": [],
      "name": "getOwnerAddresses",
      "outputs": [
        {
          "name": "",
          "type": "address[]"
        }
      ],
      "payable": false,
      "stateMutability": "view",
      "type": "function"
    },
    {
      "constant": true,
      "inputs": [],
      "name": "getOwnerAddressesLength",
      "outputs": [
        {
          "name": "",
          "type": "uint256"
        }
      ],
      "payable": false,
      "stateMutability": "view",
      "type": "function"
    },
    {
      "constant": false,
      "inputs": [
        {
          "name": "_blockheight",
          "type": "uint256"
        },
        {
          "name": "_currency",
          "type": "bytes32"
        },
        {
          "name": "_value",
          "type": "uint256"
        }
      ],
      "name": "saveValuation",
      "outputs": [],
      "payable": false,
      "stateMutability": "nonpayable",
      "type": "function"
    },
    {
      "constant": true,
      "inputs": [],
      "name": "getLastValuationBlockheight",
      "outputs": [
        {
          "name": "",
          "type": "uint256"
        }
      ],
      "payable": false,
      "stateMutability": "view",
      "type": "function"
    },
    {
      "constant": false,
      "inputs": [
        {
          "name": "_blockheight",
          "type": "uint256"
        }
      ],
      "name": "deleteValuation",
      "outputs": [],
      "payable": false,
      "stateMutability": "nonpayable",
      "type": "function"
    },
    {
      "constant": true,
      "inputs": [
        {
          "name": "_blockheight",
          "type": "uint256"
        }
      ],
      "name": "getValuation",
      "outputs": [
        {
          "name": "",
          "type": "uint256"
        },
        {
          "name": "",
          "type": "bytes32"
        },
        {
          "name": "",
          "type": "uint256"
        },
        {
          "name": "",
          "type": "bool"
        }
      ],
      "payable": false,
      "stateMutability": "view",
      "type": "function"
    },
    {
      "constant": false,
      "inputs": [
        {
          "name": "_crwdToken",
          "type": "address"
        }
      ],
      "name": "kill",
      "outputs": [],
      "payable": false,
      "stateMutability": "nonpayable",
      "type": "function"
    }
  ],
  "bytecode": "0x60806040523480156200001157600080fd5b50604051620018a2380380620018a2833981018060405260c08110156200003757600080fd5b8101908080516401000000008111156200005057600080fd5b820160208101848111156200006457600080fd5b81516401000000008111828201871017156200007f57600080fd5b505092919060200180516401000000008111156200009c57600080fd5b82016020810184811115620000b057600080fd5b8151640100000000811182820187101715620000cb57600080fd5b50509291906020018051640100000000811115620000e857600080fd5b82016020810184811115620000fc57600080fd5b81516401000000008111828201871017156200011757600080fd5b50506020820151604083015160609093015160038054600160a060020a031916331790559194509250600160a060020a03821615156200015657600080fd5b600160a060020a03811615156200016c57600080fd5b600160a060020a03831615156200018257600080fd5b855162000197906006906020890190620002c2565b508451620001ad906007906020880190620002c2565b508351620001c3906008906020870190620002c2565b5060038054600160a060020a03808616600160a060020a03199283168117909355600480548683169084161790556005805491851691909216179055620186a06001819055600091825260208290526040909120556200022c8364010000000062000238810204565b50505050505062000367565b600160a060020a03811660009081526009602052604090205460ff161515620002bf57600a805460018082019092557fc65a7bb8d6351c1cf70c95a316cc6a92839c986682d98bc35f958f4883f9d2a8018054600160a060020a031916600160a060020a0384169081179091556000908152600960205260409020805460ff191690911790555b50565b828054600181600116156101000203166002900490600052602060002090601f016020900481019282601f106200030557805160ff191683800117855562000335565b8280016001018555821562000335579182015b828111156200033557825182559160200191906001019062000318565b506200034392915062000347565b5090565b6200036491905b808211156200034357600081556001016200034e565b90565b61152b80620003776000396000f3fe60806040526004361061017f5763ffffffff7c010000000000000000000000000000000000000000000000000000000060003504166306fdde0381146101ba578063095ea7b3146102445780630f310b171461029157806318160ddd146102d757806320870af8146102fe57806323b872dd1461033657806325ed2a1e1461037957806326ad3276146103de5780632e562302146104085780632ff2e9dc1461041d5780633bd18a3b14610432578063661884631461048457806370a08231146104bd578063715018a6146104f05780637b10399914610505578063869dc3931461051a5780638da5cb5b1461052f5780639358928b1461054457806394c453281461055957806395d89b4114610583578063a9059cbb14610598578063a91ee0dc146105d1578063aba8315014610604578063c56385e914610619578063c60f2c331461062e578063cbf0b0c014610678578063d73dd623146106ab578063dd62ed3e146106e4578063f2fde38b1461071f578063f5e13a3714610752575b60408051438152346020820152815133927ffe33f0811fa6888b448cede42592cdfff185bcfc222993b1be8ac00c1eabfa01928290030190a2005b3480156101c657600080fd5b506101cf610785565b6040805160208082528351818301528351919283929083019185019080838360005b838110156102095781810151838201526020016101f1565b50505050905090810190601f1680156102365780820380516001836020036101000a031916815260200191505b509250505060405180910390f35b34801561025057600080fd5b5061027d6004803603604081101561026757600080fd5b50600160a060020a038135169060200135610813565b604080519115158252519081900360200190f35b34801561029d57600080fd5b506102bb600480360360208110156102b457600080fd5b5035610879565b60408051600160a060020a039092168252519081900360200190f35b3480156102e357600080fd5b506102ec6108a1565b60408051918252519081900360200190f35b34801561030a57600080fd5b506103346004803603606081101561032157600080fd5b50803590602081013590604001356108a8565b005b34801561034257600080fd5b5061027d6004803603606081101561035957600080fd5b50600160a060020a0381358116916020810135909116906040013561096c565b34801561038557600080fd5b5061038e61099e565b60408051602080825283518183015283519192839290830191858101910280838360005b838110156103ca5781810151838201526020016103b2565b505050509050019250505060405180910390f35b3480156103ea57600080fd5b506103346004803603602081101561040157600080fd5b5035610a00565b34801561041457600080fd5b506102bb610a64565b34801561042957600080fd5b506102ec610a73565b34801561043e57600080fd5b5061045c6004803603602081101561045557600080fd5b5035610a7a565b6040805194855260208501939093528383019190915215156060830152519081900360800190f35b34801561049057600080fd5b5061027d600480360360408110156104a757600080fd5b50600160a060020a038135169060200135610ac7565b3480156104c957600080fd5b506102ec600480360360208110156104e057600080fd5b5035600160a060020a0316610bb6565b3480156104fc57600080fd5b50610334610bd1565b34801561051157600080fd5b506102bb610c3f565b34801561052657600080fd5b506102ec610c4e565b34801561053b57600080fd5b506102bb610c54565b34801561055057600080fd5b506102ec610c63565b34801561056557600080fd5b506102ec6004803603602081101561057c57600080fd5b5035610c7c565b34801561058f57600080fd5b506101cf610c9b565b3480156105a457600080fd5b5061027d600480360360408110156105bb57600080fd5b50600160a060020a038135169060200135610cf6565b3480156105dd57600080fd5b50610334600480360360208110156105f457600080fd5b5035600160a060020a0316610d26565b34801561061057600080fd5b506101cf610d81565b34801561062557600080fd5b506102ec610ddc565b34801561063a57600080fd5b506106586004803603602081101561065157600080fd5b5035610e52565b604080519384526020840192909252151582820152519081900360600190f35b34801561068457600080fd5b506103346004803603602081101561069b57600080fd5b5035600160a060020a0316610e76565b3480156106b757600080fd5b5061027d600480360360408110156106ce57600080fd5b50600160a060020a038135169060200135610fc8565b3480156106f057600080fd5b506102ec6004803603604081101561070757600080fd5b50600160a060020a0381358116916020013516611061565b34801561072b57600080fd5b506103346004803603602081101561074257600080fd5b5035600160a060020a031661108c565b34801561075e57600080fd5b5061027d6004803603602081101561077557600080fd5b5035600160a060020a03166110af565b6006805460408051602060026001851615610100026000190190941693909304601f8101849004840282018401909252818152929183018282801561080b5780601f106107e05761010080835404028352916020019161080b565b820191906000526020600020905b8154815290600101906020018083116107ee57829003601f168201915b505050505081565b336000818152600260209081526040808320600160a060020a038716808552908352818420869055815186815291519394909390927f8c5be1e5ebec7d5bd14f71427d1e84f3dd0314c0f7b2291e5b200ac8c7c3b925928290030190a350600192915050565b600a80548290811061088757fe5b600091825260209091200154600160a060020a0316905081565b6001545b90565b600354600160a060020a031633146108bf57600080fd5b6108c7610ddc565b83116108d257600080fd5b6000838152600b6020908152604080832085815560018082018690556002909101805460ff191682179055600c805491820181559093527fdf6966c971051c3d54ec59162606531493a51404a002842f56009d7e5cf4a8c79092018590558151848152908101839052815185927fe939d6b4a7313c743795dbb77a15cd48be6a93c2e5831b7c590efd59ba73e626928290030190a2505050565b6000610977836110af565b151561098257600080fd5b61098b83611178565b61099684848461120e565b949350505050565b6060600a8054806020026020016040519081016040528092919081815260200182805480156109f657602002820191906000526020600020905b8154600160a060020a031681526001909101906020018083116109d8575b5050505050905090565b600354600160a060020a03163314610a1757600080fd5b6000818152600b602052604080822082815560018101839055600201805460ff191690555182917f4ee5f53e7c223913ecd9d2504fcfa0277500598fc6332461311bc48ecb2a138f91a250565b600554600160a060020a031681565b620186a081565b6000806000806000808611610a9657610a91610ddc565b610a98565b855b6000818152600b60205260409020805460018201546002909201549297509550935060ff169150509193509193565b336000908152600260209081526040808320600160a060020a0386168452909152812054808310610b1b57336000908152600260209081526040808320600160a060020a0388168452909152812055610b50565b610b2b818463ffffffff61138316565b336000908152600260209081526040808320600160a060020a03891684529091529020555b336000818152600260209081526040808320600160a060020a0389168085529083529281902054815190815290519293927f8c5be1e5ebec7d5bd14f71427d1e84f3dd0314c0f7b2291e5b200ac8c7c3b925929181900390910190a35060019392505050565b600160a060020a031660009081526020819052604090205490565b600354600160a060020a03163314610be857600080fd5b600354604051600160a060020a03909116907ff8df31144d9c2f0f6b59d69b8b98abd5459d07f2742c4df920b25aae33c6482090600090a26003805473ffffffffffffffffffffffffffffffffffffffff19169055565b600454600160a060020a031681565b600a5490565b600354600160a060020a031681565b6000610c6e30610bb6565b610c766108a1565b03905090565b600c805482908110610c8a57fe5b600091825260209091200154905081565b6007805460408051602060026001851615610100026000190190941693909304601f8101849004840282018401909252818152929183018282801561080b5780601f106107e05761010080835404028352916020019161080b565b6000610d01836110af565b1515610d0c57600080fd5b610d1583611178565b610d1f8383611395565b9392505050565b600354600160a060020a03163314610d3d57600080fd5b600160a060020a0381161515610d5257600080fd5b6004805473ffffffffffffffffffffffffffffffffffffffff1916600160a060020a0392909216919091179055565b6008805460408051602060026001851615610100026000190190941693909304601f8101849004840282018401909252818152929183018282801561080b5780601f106107e05761010080835404028352916020019161080b565b600c546000901515610df0575060006108a5565b600c54600019015b60008110610e4e576000600c82815481101515610e1157fe5b6000918252602080832090910154808352600b90915260409091206002015490915060ff1615610e445791506108a59050565b5060001901610df8565b5090565b600b6020526000908152604090208054600182015460029092015490919060ff1683565b600354600160a060020a03163314610e8d57600080fd5b600354604080517f70a082310000000000000000000000000000000000000000000000000000000081523060048201529051600160a060020a038085169363a9059cbb9391169184916370a08231916024808301926020929190829003018186803b158015610efb57600080fd5b505afa158015610f0f573d6000803e3d6000fd5b505050506040513d6020811015610f2557600080fd5b5051604080517c010000000000000000000000000000000000000000000000000000000063ffffffff8616028152600160a060020a03909316600484015260248301919091525160448083019260209291908290030181600087803b158015610f8d57600080fd5b505af1158015610fa1573d6000803e3d6000fd5b505050506040513d6020811015610fb757600080fd5b5050600354600160a060020a031680ff5b336000908152600260209081526040808320600160a060020a0386168452909152812054610ffc908363ffffffff61147416565b336000818152600260209081526040808320600160a060020a0389168085529083529281902085905580519485525191937f8c5be1e5ebec7d5bd14f71427d1e84f3dd0314c0f7b2291e5b200ac8c7c3b925929081900390910190a350600192915050565b600160a060020a03918216600090815260026020908152604080832093909416825291909152205490565b600354600160a060020a031633146110a357600080fd5b6110ac81611481565b50565b6000600160a060020a0382163014806110d55750600554600160a060020a038381169116145b80611172575060048054604080517fbb910c5d000000000000000000000000000000000000000000000000000000008152600160a060020a03868116948201949094529051929091169163bb910c5d91602480820192602092909190829003018186803b15801561114557600080fd5b505afa158015611159573d6000803e3d6000fd5b505050506040513d602081101561116f57600080fd5b50515b92915050565b600160a060020a03811660009081526009602052604090205460ff1615156110ac57600a805460018181019092557fc65a7bb8d6351c1cf70c95a316cc6a92839c986682d98bc35f958f4883f9d2a8018054600160a060020a03841673ffffffffffffffffffffffffffffffffffffffff1990911681179091556000908152600960205260409020805460ff1916909117905550565b600160a060020a03831660009081526020819052604081205482111561123357600080fd5b600160a060020a038416600090815260026020908152604080832033845290915290205482111561126357600080fd5b600160a060020a038316151561127857600080fd5b600160a060020a0384166000908152602081905260409020546112a1908363ffffffff61138316565b600160a060020a0380861660009081526020819052604080822093909355908516815220546112d6908363ffffffff61147416565b600160a060020a03808516600090815260208181526040808320949094559187168152600282528281203382529091522054611318908363ffffffff61138316565b600160a060020a03808616600081815260026020908152604080832033845282529182902094909455805186815290519287169391927fddf252ad1be2c89b69c2b068fc378daa952ba7f163c4a11628f55a4df523b3ef929181900390910190a35060019392505050565b60008282111561138f57fe5b50900390565b336000908152602081905260408120548211156113b157600080fd5b600160a060020a03831615156113c657600080fd5b336000908152602081905260409020546113e6908363ffffffff61138316565b3360009081526020819052604080822092909255600160a060020a03851681522054611418908363ffffffff61147416565b600160a060020a038416600081815260208181526040918290209390935580518581529051919233927fddf252ad1be2c89b69c2b068fc378daa952ba7f163c4a11628f55a4df523b3ef9281900390910190a350600192915050565b8181018281101561117257fe5b600160a060020a038116151561149657600080fd5b600354604051600160a060020a038084169216907f8be0079c531659141344cd1fd0a4f28419497f9722a3daafe3b4186f6b6457e090600090a36003805473ffffffffffffffffffffffffffffffffffffffff1916600160a060020a039290921691909117905556fea165627a7a72305820919f428c82d32532a0e77b3eba97dbfea9818e12c6cfca1a1e80fe47c41dc2e10029",
  "source": "pragma solidity ^0.5.0;\n\n\nimport './StandardToken.sol';\nimport './Ownable.sol';\nimport './Registry.sol';\nimport './CrowdOwnedManager.sol';\nimport './CrowdOwnedExchange.sol';\nimport './CRWDToken.sol';\n\n\ncontract CrowdOwned is StandardToken, Ownable {\n  /*\n   *  Events\n   */\n  event ValuationSaved(uint indexed _blockheight, bytes32 _currency, uint _value);\n\n  event ValuationDeleted(uint indexed _blockheight);\n\n  event EthPaymentReceived(address indexed _sender, uint _blockheight, uint _value);\n\n  /*\n   * Storage\n   */\n  Registry public registry;\n\n  CrowdOwnedExchange public crowdOwnedExchange;\n\n  string public  name;\n\n  string public  symbol;\n\n  string public  imageUrl;\n\n  mapping(address => bool) ownerAddressInitialized;\n\n  address[] public ownerAddresses;\n\n  mapping(uint => Valuation) public valuationsData;\n\n  uint[] public valuationBlockheights;\n\n  struct Valuation {\n    bytes32 currency;\n    uint value;\n    bool isValuation;\n  }\n\n\n  /*\n   * Constants\n   */\n  uint256 public constant INITIAL_SUPPLY = 100000;\n\n  /*\n   * Public functions\n   */\n\n  /**\n  * @dev Contract constructor\n  * @param _name Contract Name\n  * @param _symbol Contract Symbol\n  * @param _imageUrl CrowdOwned Object Image Url\n  */\n  constructor(string memory _name, string memory _symbol, string memory _imageUrl, address _owner, Registry _registry, CrowdOwnedExchange _crowdOwnedExchange) public {\n    // prevent setting to null\n    require(address(_registry) != address(0));\n    require(address(_crowdOwnedExchange) != address(0));\n    require(address(_owner) != address(0));\n\n    name = _name;\n    symbol = _symbol;\n    imageUrl = _imageUrl;\n\n    // override Ownable constructor to allow indirect deployment\n    owner = _owner;\n\n    // set registry\n    registry = _registry;\n\n    // set exchange\n    crowdOwnedExchange = _crowdOwnedExchange;\n\n    totalSupply_ = INITIAL_SUPPLY;\n    balances[_owner] = INITIAL_SUPPLY;\n\n    // add owner to list\n    tryAddOwnerAddress(_owner);\n  }\n\n  /**\n  * @dev set registry contract address\n  * @param _registry Registry contract address\n  */\n  function setRegistry(Registry _registry) public onlyOwner {\n    // prevent setting to null\n    require(address(_registry) != address(0));\n\n    registry = _registry;\n  }\n\n  /**\n  * @dev overwrite token transfer function to check registry before transfer\n  * @param _to The address to transfer to.\n  * @param _value The amount to be transferred.\n  */\n  function transfer(address _to, uint256 _value) public returns (bool) {\n    require(isValidTransfer(_to));\n\n    // add owner address if necessary\n    tryAddOwnerAddress(_to);\n\n    return super.transfer(_to, _value);\n  }\n\n  /**\n  * @dev overwrite token transferFrom function to check registry before transfer\n  * @param _to The address to transfer to.\n  * @param _value The amount to be transferred.\n  */\n  function transferFrom(address _from, address _to, uint256 _value) public returns (bool) {\n    require(isValidTransfer(_to));\n\n    // add owner address if necessary\n    tryAddOwnerAddress(_to);\n\n    return super.transferFrom(_from, _to, _value);\n  }\n\n  /**\n  * @dev check if transfer is valid\n  * @param _to The address to transfer to.\n  */\n  function isValidTransfer(address _to) public view returns (bool){\n    return (_to == address(this) || _to == address(crowdOwnedExchange) || registry.isVerifiedAndValid(_to));\n  }\n\n  /**\n  * @dev get tokens circulating supply\n  */\n  function circulatingSupply() public view returns (uint) {\n    return totalSupply() - balanceOf(address(this));\n  }\n\n  /**\n  * @dev Add owner address if necessary\n  * @param _address Owner Address to be added\n  */\n  function tryAddOwnerAddress(address _address) internal {\n    if (!ownerAddressInitialized[_address]) {\n      ownerAddresses.push(_address);\n      ownerAddressInitialized[_address] = true;\n    }\n  }\n\n  /**\n  * @dev get owner addresses\n  */\n  function getOwnerAddresses() public view returns (address[] memory) {\n    return ownerAddresses;\n  }\n\n  /**\n  * @dev get owner addresses length\n  */\n  function getOwnerAddressesLength() public view returns (uint) {\n    return ownerAddresses.length;\n  }\n\n  /**\n  * @dev Save valuation\n  * @param _blockheight valuation blockheight\n  * @param _currency valuation currency\n  * @param _value valuation value\n  */\n  function saveValuation(uint _blockheight, bytes32 _currency, uint _value) public onlyOwner {\n    // make sure blockheight after last valuation blockheight\n    require(_blockheight > getLastValuationBlockheight());\n\n    // create new valuation\n    valuationsData[_blockheight].currency = _currency;\n    valuationsData[_blockheight].value = _value;\n    valuationsData[_blockheight].isValuation = true;\n    valuationBlockheights.push(_blockheight);\n\n    // Log event\n    emit ValuationSaved(_blockheight, _currency, _value);\n  }\n\n  /**\n  * @dev Get last valuation blockheight\n  */\n  function getLastValuationBlockheight() public view returns (uint){\n    if (valuationBlockheights.length == 0) {\n      // no data\n      return 0;\n    }\n\n    // find last blockheight whose valuation data was not deleted\n    for (uint i = valuationBlockheights.length - 1; i >= 0; i--)\n    {\n      uint blockheight = valuationBlockheights[i];\n      if (valuationsData[blockheight].isValuation) {\n        return blockheight;\n      }\n    }\n  }\n\n  /**\n  * @dev Delete valuation\n  * @param _blockheight valuation blockheight\n  */\n  function deleteValuation(uint _blockheight) public onlyOwner {\n    delete valuationsData[_blockheight];\n\n    // Log event\n    emit ValuationDeleted(_blockheight);\n  }\n\n  /**\n  * @dev Get Valuation\n  * @param _blockheight valuation blockheight\n  */\n  function getValuation(uint _blockheight) public view returns (uint, bytes32, uint, bool){\n    // calling with 0 returns the last valuation data\n    uint blockheight = (_blockheight > 0 ? _blockheight : getLastValuationBlockheight());\n    return (blockheight, valuationsData[blockheight].currency, valuationsData[blockheight].value, valuationsData[blockheight].isValuation);\n  }\n\n  /**\n  * @dev Kills contract\n  * @param _crwdToken token address\n  */\n  function kill(CRWDToken _crwdToken) public onlyOwner {\n    // Transfer CRWD Tokens balance to owner\n    _crwdToken.transfer(owner, _crwdToken.balanceOf(address(this)));\n\n    // kill contract and send ETH balance to owner\n    address payable ownerPayable = address(uint160(owner));\n    selfdestruct(ownerPayable);\n  }\n\n  /**\n  * @dev Fallback function to receive funds\n  */\n  function() external payable {\n    // Log event\n    emit EthPaymentReceived(msg.sender, block.number, msg.value);\n  }\n\n}",
  "sourcePath": "/Users/didil/work/projects/ethereum/crwd-prototype/contracts/CrowdOwned.sol",
  "compiler": {
    "name": "solc",
    "version": "0.5.0+commit.1d4f565a.Emscripten.clang"
  },
  "schemaVersion": "3.0.1",
  "updatedAt": "2019-01-17T04:20:56.956Z",
  "devdoc": {
    "methods": {
      "allowance(address,address)": {
        "details": "Function to check the amount of tokens that an owner allowed to a spender.",
        "params": {
          "_owner": "address The address which owns the funds.",
          "_spender": "address The address which will spend the funds."
        },
        "return": "A uint256 specifying the amount of tokens still available for the spender."
      },
      "approve(address,uint256)": {
        "details": "Approve the passed address to spend the specified amount of tokens on behalf of msg.sender. Beware that changing an allowance with this method brings the risk that someone may use both the old and the new allowance by unfortunate transaction ordering. One possible solution to mitigate this race condition is to first reduce the spender's allowance to 0 and set the desired value afterwards: https://github.com/ethereum/EIPs/issues/20#issuecomment-263524729",
        "params": {
          "_spender": "The address which will spend the funds.",
          "_value": "The amount of tokens to be spent."
        }
      },
      "balanceOf(address)": {
        "details": "Gets the balance of the specified address.",
        "params": {
          "_owner": "The address to query the the balance of."
        },
        "return": "An uint256 representing the amount owned by the passed address."
      },
      "circulatingSupply()": {
        "details": "get tokens circulating supply"
      },
      "constructor": {
        "details": "Contract constructor",
        "params": {
          "_imageUrl": "CrowdOwned Object Image Url",
          "_name": "Contract Name",
          "_symbol": "Contract Symbol"
        }
      },
      "decreaseApproval(address,uint256)": {
        "details": "Decrease the amount of tokens that an owner allowed to a spender. approve should be called when allowed[_spender] == 0. To decrement allowed value is better to use this function to avoid 2 calls (and wait until the first transaction is mined) From MonolithDAO Token.sol",
        "params": {
          "_spender": "The address which will spend the funds.",
          "_subtractedValue": "The amount of tokens to decrease the allowance by."
        }
      },
      "deleteValuation(uint256)": {
        "details": "Delete valuation",
        "params": {
          "_blockheight": "valuation blockheight"
        }
      },
      "getLastValuationBlockheight()": {
        "details": "Get last valuation blockheight"
      },
      "getOwnerAddresses()": {
        "details": "get owner addresses"
      },
      "getOwnerAddressesLength()": {
        "details": "get owner addresses length"
      },
      "getValuation(uint256)": {
        "details": "Get Valuation",
        "params": {
          "_blockheight": "valuation blockheight"
        }
      },
      "increaseApproval(address,uint256)": {
        "details": "Increase the amount of tokens that an owner allowed to a spender. approve should be called when allowed[_spender] == 0. To increment allowed value is better to use this function to avoid 2 calls (and wait until the first transaction is mined) From MonolithDAO Token.sol",
        "params": {
          "_addedValue": "The amount of tokens to increase the allowance by.",
          "_spender": "The address which will spend the funds."
        }
      },
      "isValidTransfer(address)": {
        "details": "check if transfer is valid",
        "params": {
          "_to": "The address to transfer to."
        }
      },
      "kill(address)": {
        "details": "Kills contract",
        "params": {
          "_crwdToken": "token address"
        }
      },
      "renounceOwnership()": {
        "details": "Allows the current owner to relinquish control of the contract."
      },
      "saveValuation(uint256,bytes32,uint256)": {
        "details": "Save valuation",
        "params": {
          "_blockheight": "valuation blockheight",
          "_currency": "valuation currency",
          "_value": "valuation value"
        }
      },
      "setRegistry(address)": {
        "details": "set registry contract address",
        "params": {
          "_registry": "Registry contract address"
        }
      },
      "totalSupply()": {
        "details": "Total number of tokens in existence"
      },
      "transfer(address,uint256)": {
        "details": "overwrite token transfer function to check registry before transfer",
        "params": {
          "_to": "The address to transfer to.",
          "_value": "The amount to be transferred."
        }
      },
      "transferFrom(address,address,uint256)": {
        "details": "overwrite token transferFrom function to check registry before transfer",
        "params": {
          "_to": "The address to transfer to.",
          "_value": "The amount to be transferred."
        }
      },
      "transferOwnership(address)": {
        "details": "Allows the current owner to transfer control of the contract to a newOwner.",
        "params": {
          "_newOwner": "The address to transfer ownership to."
        }
      }
    }
  },
  "userdoc": {
    "methods": {
      "renounceOwnership()": {
        "notice": "Renouncing to ownership will leave the contract without an owner. It will not be possible to call the functions with the `onlyOwner` modifier anymore."
      }
    }
  }
}