{
  "contractName": "CrowdOwnedExchange",
  "abi": [
    {
      "constant": true,
      "inputs": [],
      "name": "crwdToken",
      "outputs": [
        {
          "name": "",
          "type": "address"
        }
      ],
      "payable": false,
      "stateMutability": "view",
      "type": "function",
      "signature": "0x07cec992"
    },
    {
      "constant": true,
      "inputs": [
        {
          "name": "",
          "type": "address"
        },
        {
          "name": "",
          "type": "address"
        }
      ],
      "name": "tokenBalances",
      "outputs": [
        {
          "name": "",
          "type": "uint256"
        }
      ],
      "payable": false,
      "stateMutability": "view",
      "type": "function",
      "signature": "0x4dbf6c5a"
    },
    {
      "constant": true,
      "inputs": [
        {
          "name": "",
          "type": "address"
        },
        {
          "name": "",
          "type": "address"
        }
      ],
      "name": "lockedTokenBalances",
      "outputs": [
        {
          "name": "",
          "type": "uint256"
        }
      ],
      "payable": false,
      "stateMutability": "view",
      "type": "function",
      "signature": "0x678c7de5"
    },
    {
      "constant": true,
      "inputs": [
        {
          "name": "",
          "type": "address"
        }
      ],
      "name": "lockedCrwdBalances",
      "outputs": [
        {
          "name": "",
          "type": "uint256"
        }
      ],
      "payable": false,
      "stateMutability": "view",
      "type": "function",
      "signature": "0x6ff1abfe"
    },
    {
      "constant": false,
      "inputs": [],
      "name": "renounceOwnership",
      "outputs": [],
      "payable": false,
      "stateMutability": "nonpayable",
      "type": "function",
      "signature": "0x715018a6"
    },
    {
      "constant": true,
      "inputs": [
        {
          "name": "",
          "type": "address"
        },
        {
          "name": "",
          "type": "uint256"
        }
      ],
      "name": "orders",
      "outputs": [
        {
          "name": "orderType",
          "type": "uint8"
        },
        {
          "name": "price",
          "type": "uint256"
        },
        {
          "name": "amount",
          "type": "uint256"
        },
        {
          "name": "userAddress",
          "type": "address"
        },
        {
          "name": "executed",
          "type": "bool"
        },
        {
          "name": "canceled",
          "type": "bool"
        },
        {
          "name": "isOrder",
          "type": "bool"
        }
      ],
      "payable": false,
      "stateMutability": "view",
      "type": "function",
      "signature": "0x793b8c6d"
    },
    {
      "constant": true,
      "inputs": [],
      "name": "registry",
      "outputs": [
        {
          "name": "",
          "type": "address"
        }
      ],
      "payable": false,
      "stateMutability": "view",
      "type": "function",
      "signature": "0x7b103999"
    },
    {
      "constant": true,
      "inputs": [
        {
          "name": "",
          "type": "address"
        }
      ],
      "name": "crwdBalances",
      "outputs": [
        {
          "name": "",
          "type": "uint256"
        }
      ],
      "payable": false,
      "stateMutability": "view",
      "type": "function",
      "signature": "0x8af6469f"
    },
    {
      "constant": true,
      "inputs": [],
      "name": "owner",
      "outputs": [
        {
          "name": "",
          "type": "address"
        }
      ],
      "payable": false,
      "stateMutability": "view",
      "type": "function",
      "signature": "0x8da5cb5b"
    },
    {
      "constant": true,
      "inputs": [
        {
          "name": "",
          "type": "address"
        },
        {
          "name": "",
          "type": "uint256"
        }
      ],
      "name": "orderIds",
      "outputs": [
        {
          "name": "",
          "type": "uint256"
        }
      ],
      "payable": false,
      "stateMutability": "view",
      "type": "function",
      "signature": "0x90ddbe3a"
    },
    {
      "constant": false,
      "inputs": [
        {
          "name": "_newOwner",
          "type": "address"
        }
      ],
      "name": "transferOwnership",
      "outputs": [],
      "payable": false,
      "stateMutability": "nonpayable",
      "type": "function",
      "signature": "0xf2fde38b"
    },
    {
      "inputs": [
        {
          "name": "_registry",
          "type": "address"
        },
        {
          "name": "_crwdToken",
          "type": "address"
        }
      ],
      "payable": false,
      "stateMutability": "nonpayable",
      "type": "constructor",
      "signature": "constructor"
    },
    {
      "anonymous": false,
      "inputs": [
        {
          "indexed": true,
          "name": "_userAddress",
          "type": "address"
        },
        {
          "indexed": true,
          "name": "_tokenAddress",
          "type": "address"
        },
        {
          "indexed": false,
          "name": "_amount",
          "type": "uint256"
        },
        {
          "indexed": false,
          "name": "_balance",
          "type": "uint256"
        }
      ],
      "name": "TokenDeposit",
      "type": "event",
      "signature": "0x4466433a9d9e9d68780a1f6286a07c1c7a0e597fe1af747b4ea79d013628fc9e"
    },
    {
      "anonymous": false,
      "inputs": [
        {
          "indexed": true,
          "name": "_userAddress",
          "type": "address"
        },
        {
          "indexed": true,
          "name": "_tokenAddress",
          "type": "address"
        },
        {
          "indexed": false,
          "name": "_amount",
          "type": "uint256"
        },
        {
          "indexed": false,
          "name": "_balance",
          "type": "uint256"
        }
      ],
      "name": "TokenWithdrawal",
      "type": "event",
      "signature": "0x794e3032fd2f558523f703ae6c488d3069a78b2a513ec3b3fcb9abe5bd1c1da0"
    },
    {
      "anonymous": false,
      "inputs": [
        {
          "indexed": true,
          "name": "_userAddress",
          "type": "address"
        },
        {
          "indexed": false,
          "name": "_amount",
          "type": "uint256"
        },
        {
          "indexed": false,
          "name": "_balance",
          "type": "uint256"
        }
      ],
      "name": "CRWDDeposit",
      "type": "event",
      "signature": "0x489bce0aaeb526aa80d6d9703ba873705b64bb7e38604f92af6c6f71ad6defbe"
    },
    {
      "anonymous": false,
      "inputs": [
        {
          "indexed": true,
          "name": "_userAddress",
          "type": "address"
        },
        {
          "indexed": false,
          "name": "_amount",
          "type": "uint256"
        },
        {
          "indexed": false,
          "name": "_balance",
          "type": "uint256"
        }
      ],
      "name": "CRWDWithdrawal",
      "type": "event",
      "signature": "0x1531d7b4ba7069f4371cc7ca3f8c84ffbe1c3fa83bb7a1177439cc50a47e842a"
    },
    {
      "anonymous": false,
      "inputs": [
        {
          "indexed": true,
          "name": "_tokenAddress",
          "type": "address"
        },
        {
          "indexed": false,
          "name": "_orderType",
          "type": "uint256"
        },
        {
          "indexed": false,
          "name": "_price",
          "type": "uint256"
        },
        {
          "indexed": false,
          "name": "_amount",
          "type": "uint256"
        },
        {
          "indexed": false,
          "name": "_userAddress",
          "type": "address"
        },
        {
          "indexed": false,
          "name": "_orderId",
          "type": "uint256"
        }
      ],
      "name": "OrderCreated",
      "type": "event",
      "signature": "0x691b0ce6bee678f58d226df692abb490a2c671242f081b7196cf486883942c0f"
    },
    {
      "anonymous": false,
      "inputs": [
        {
          "indexed": true,
          "name": "_tokenAddress",
          "type": "address"
        },
        {
          "indexed": false,
          "name": "_orderId",
          "type": "uint256"
        }
      ],
      "name": "OrderCanceled",
      "type": "event",
      "signature": "0xafe5d45b77c7cea746dab67e30e6ca60c00cec51787feb121441c48ec20e3e57"
    },
    {
      "anonymous": false,
      "inputs": [
        {
          "indexed": true,
          "name": "_tokenAddress",
          "type": "address"
        },
        {
          "indexed": false,
          "name": "_orderId",
          "type": "uint256"
        },
        {
          "indexed": true,
          "name": "_takerAddress",
          "type": "address"
        }
      ],
      "name": "OrderTaken",
      "type": "event",
      "signature": "0x2d0250dd8054448aa84b8d0d89a0cfc0c02e0b31a862b1ecd9c133d3ae5eb710"
    },
    {
      "anonymous": false,
      "inputs": [
        {
          "indexed": true,
          "name": "_userAddress",
          "type": "address"
        },
        {
          "indexed": true,
          "name": "_tokenAddress",
          "type": "address"
        },
        {
          "indexed": false,
          "name": "amount",
          "type": "uint256"
        }
      ],
      "name": "LockedTokenBalance",
      "type": "event",
      "signature": "0x6898e2a0646eb6a49ca1d2b9ec02134d9f9fac3505c0914c8b184147eeffb105"
    },
    {
      "anonymous": false,
      "inputs": [
        {
          "indexed": true,
          "name": "_userAddress",
          "type": "address"
        },
        {
          "indexed": true,
          "name": "_tokenAddress",
          "type": "address"
        },
        {
          "indexed": false,
          "name": "amount",
          "type": "uint256"
        }
      ],
      "name": "UnlockedTokenBalance",
      "type": "event",
      "signature": "0x4196a28d5c5451d5a3777724457826c6d34f3376f624046b5c7ac23046b3c9d0"
    },
    {
      "anonymous": false,
      "inputs": [
        {
          "indexed": true,
          "name": "_userAddress",
          "type": "address"
        },
        {
          "indexed": false,
          "name": "amount",
          "type": "uint256"
        }
      ],
      "name": "LockedCrwdBalance",
      "type": "event",
      "signature": "0x988a6ca84ad3e663ccfdd4cb777e7943da80c301959c2ea09554baa15ffafd1e"
    },
    {
      "anonymous": false,
      "inputs": [
        {
          "indexed": true,
          "name": "_userAddress",
          "type": "address"
        },
        {
          "indexed": false,
          "name": "amount",
          "type": "uint256"
        }
      ],
      "name": "UnlockedCrwdBalance",
      "type": "event",
      "signature": "0x46b5f1784b5a812966f1ee7c36f6e8bbddce19afbf6de0e34b7592705c42c9b1"
    },
    {
      "anonymous": false,
      "inputs": [
        {
          "indexed": true,
          "name": "previousOwner",
          "type": "address"
        }
      ],
      "name": "OwnershipRenounced",
      "type": "event",
      "signature": "0xf8df31144d9c2f0f6b59d69b8b98abd5459d07f2742c4df920b25aae33c64820"
    },
    {
      "anonymous": false,
      "inputs": [
        {
          "indexed": true,
          "name": "previousOwner",
          "type": "address"
        },
        {
          "indexed": true,
          "name": "newOwner",
          "type": "address"
        }
      ],
      "name": "OwnershipTransferred",
      "type": "event",
      "signature": "0x8be0079c531659141344cd1fd0a4f28419497f9722a3daafe3b4186f6b6457e0"
    },
    {
      "constant": false,
      "inputs": [
        {
          "name": "_token",
          "type": "address"
        },
        {
          "name": "_amount",
          "type": "uint256"
        }
      ],
      "name": "depositCrowdOwnedTokens",
      "outputs": [],
      "payable": false,
      "stateMutability": "nonpayable",
      "type": "function",
      "signature": "0xfd2af664"
    },
    {
      "constant": false,
      "inputs": [
        {
          "name": "_token",
          "type": "address"
        },
        {
          "name": "_amount",
          "type": "uint256"
        }
      ],
      "name": "withdrawCrowdOwnedTokens",
      "outputs": [],
      "payable": false,
      "stateMutability": "nonpayable",
      "type": "function",
      "signature": "0xd5a9e14d"
    },
    {
      "constant": true,
      "inputs": [
        {
          "name": "_token",
          "type": "address"
        },
        {
          "name": "_userAddress",
          "type": "address"
        }
      ],
      "name": "tokenBalanceOf",
      "outputs": [
        {
          "name": "",
          "type": "uint256"
        }
      ],
      "payable": false,
      "stateMutability": "view",
      "type": "function",
      "signature": "0x1bea8006"
    },
    {
      "constant": true,
      "inputs": [
        {
          "name": "_token",
          "type": "address"
        },
        {
          "name": "_userAddress",
          "type": "address"
        }
      ],
      "name": "lockedTokenBalanceOf",
      "outputs": [
        {
          "name": "",
          "type": "uint256"
        }
      ],
      "payable": false,
      "stateMutability": "view",
      "type": "function",
      "signature": "0x351f64c5"
    },
    {
      "constant": false,
      "inputs": [
        {
          "name": "_amount",
          "type": "uint256"
        }
      ],
      "name": "depositCRWDTokens",
      "outputs": [],
      "payable": false,
      "stateMutability": "nonpayable",
      "type": "function",
      "signature": "0x54af1e58"
    },
    {
      "constant": false,
      "inputs": [
        {
          "name": "_amount",
          "type": "uint256"
        }
      ],
      "name": "withdrawCRWDTokens",
      "outputs": [],
      "payable": false,
      "stateMutability": "nonpayable",
      "type": "function",
      "signature": "0x32aeaaa0"
    },
    {
      "constant": true,
      "inputs": [
        {
          "name": "_userAddress",
          "type": "address"
        }
      ],
      "name": "crwdBalanceOf",
      "outputs": [
        {
          "name": "",
          "type": "uint256"
        }
      ],
      "payable": false,
      "stateMutability": "view",
      "type": "function",
      "signature": "0xd4759c10"
    },
    {
      "constant": true,
      "inputs": [
        {
          "name": "_userAddress",
          "type": "address"
        }
      ],
      "name": "lockedCrwdBalanceOf",
      "outputs": [
        {
          "name": "",
          "type": "uint256"
        }
      ],
      "payable": false,
      "stateMutability": "view",
      "type": "function",
      "signature": "0x4b8e3be1"
    },
    {
      "constant": false,
      "inputs": [
        {
          "name": "_tokenAddress",
          "type": "address"
        },
        {
          "name": "_orderType",
          "type": "uint256"
        },
        {
          "name": "_price",
          "type": "uint256"
        },
        {
          "name": "_amount",
          "type": "uint256"
        }
      ],
      "name": "createOrder",
      "outputs": [],
      "payable": false,
      "stateMutability": "nonpayable",
      "type": "function",
      "signature": "0x6f652e1a"
    },
    {
      "constant": true,
      "inputs": [
        {
          "name": "_isMaker",
          "type": "bool"
        },
        {
          "name": "_tokenAddress",
          "type": "address"
        },
        {
          "name": "_orderType",
          "type": "uint8"
        },
        {
          "name": "_price",
          "type": "uint256"
        },
        {
          "name": "_amount",
          "type": "uint256"
        }
      ],
      "name": "isBalanceSufficient",
      "outputs": [
        {
          "name": "",
          "type": "bool"
        }
      ],
      "payable": false,
      "stateMutability": "view",
      "type": "function",
      "signature": "0xcd98e47e"
    },
    {
      "constant": true,
      "inputs": [
        {
          "name": "_tokenAddress",
          "type": "address"
        }
      ],
      "name": "getOrdersLength",
      "outputs": [
        {
          "name": "length",
          "type": "uint256"
        }
      ],
      "payable": false,
      "stateMutability": "view",
      "type": "function",
      "signature": "0xa903be1b"
    },
    {
      "constant": true,
      "inputs": [
        {
          "name": "_tokenAddress",
          "type": "address"
        }
      ],
      "name": "getOrderIds",
      "outputs": [
        {
          "name": "",
          "type": "uint256[]"
        }
      ],
      "payable": false,
      "stateMutability": "view",
      "type": "function",
      "signature": "0xe5e24bb7"
    },
    {
      "constant": true,
      "inputs": [
        {
          "name": "_tokenAddress",
          "type": "address"
        },
        {
          "name": "_id",
          "type": "uint256"
        }
      ],
      "name": "getOrder",
      "outputs": [
        {
          "name": "orderType",
          "type": "uint8"
        },
        {
          "name": "price",
          "type": "uint256"
        },
        {
          "name": "amount",
          "type": "uint256"
        },
        {
          "name": "userAddress",
          "type": "address"
        },
        {
          "name": "executed",
          "type": "bool"
        },
        {
          "name": "canceled",
          "type": "bool"
        },
        {
          "name": "isOrder",
          "type": "bool"
        }
      ],
      "payable": false,
      "stateMutability": "view",
      "type": "function",
      "signature": "0xedb25841"
    },
    {
      "constant": false,
      "inputs": [
        {
          "name": "_tokenAddress",
          "type": "address"
        },
        {
          "name": "_id",
          "type": "uint256"
        }
      ],
      "name": "cancelOrder",
      "outputs": [],
      "payable": false,
      "stateMutability": "nonpayable",
      "type": "function",
      "signature": "0x6a206137"
    },
    {
      "constant": false,
      "inputs": [
        {
          "name": "_tokenAddress",
          "type": "address"
        },
        {
          "name": "_id",
          "type": "uint256"
        }
      ],
      "name": "takeOrder",
      "outputs": [],
      "payable": false,
      "stateMutability": "nonpayable",
      "type": "function",
      "signature": "0x99479b9f"
    }
  ],
  "bytecode": "0x608060405234801561001057600080fd5b506040516040806120f08339810180604052604081101561003057600080fd5b50805160209091015160008054600160a060020a03191633179055600160a060020a038216151561006057600080fd5b600160a060020a038116151561007557600080fd5b60018054600160a060020a03938416600160a060020a03199182161790915560028054929093169116179055612040806100b06000396000f3fe6080604052600436106101535763ffffffff7c010000000000000000000000000000000000000000000000000000000060003504166307cec99281146101585780631bea80061461018957806332aeaaa0146101d6578063351f64c5146102025780634b8e3be11461023d5780634dbf6c5a1461027057806354af1e58146102ab578063678c7de5146102d55780636a206137146103105780636f652e1a146103495780636ff1abfe1461038e578063715018a6146103c1578063793b8c6d146103d65780637b103999146104685780638af6469f1461047d5780638da5cb5b146104b057806390ddbe3a146104c557806399479b9f146104fe578063a903be1b14610537578063cd98e47e1461056a578063d4759c10146105ce578063d5a9e14d14610601578063e5e24bb71461063a578063edb25841146106bd578063f2fde38b146106f6578063fd2af66414610729575b600080fd5b34801561016457600080fd5b5061016d610762565b60408051600160a060020a039092168252519081900360200190f35b34801561019557600080fd5b506101c4600480360360408110156101ac57600080fd5b50600160a060020a0381358116916020013516610771565b60408051918252519081900360200190f35b3480156101e257600080fd5b50610200600480360360208110156101f957600080fd5b503561079e565b005b34801561020e57600080fd5b506101c46004803603604081101561022557600080fd5b50600160a060020a03813581169160200135166108dc565b34801561024957600080fd5b506101c46004803603602081101561026057600080fd5b5035600160a060020a0316610907565b34801561027c57600080fd5b506101c46004803603604081101561029357600080fd5b50600160a060020a0381358116916020013516610922565b3480156102b757600080fd5b50610200600480360360208110156102ce57600080fd5b503561093f565b3480156102e157600080fd5b506101c4600480360360408110156102f857600080fd5b50600160a060020a0381358116916020013516610a6a565b34801561031c57600080fd5b506102006004803603604081101561033357600080fd5b50600160a060020a038135169060200135610a87565b34801561035557600080fd5b506102006004803603608081101561036c57600080fd5b50600160a060020a038135169060208101359060408101359060600135610c4b565b34801561039a57600080fd5b506101c4600480360360208110156103b157600080fd5b5035600160a060020a0316610f05565b3480156103cd57600080fd5b50610200610f17565b3480156103e257600080fd5b5061040f600480360360408110156103f957600080fd5b50600160a060020a038135169060200135610f83565b6040518088600181111561041f57fe5b60ff168152602081019790975250604080870195909552600160a060020a0390931660608601529015156080850152151560a0840152151560c0830152519081900360e0019150f35b34801561047457600080fd5b5061016d610fe0565b34801561048957600080fd5b506101c4600480360360208110156104a057600080fd5b5035600160a060020a0316610fef565b3480156104bc57600080fd5b5061016d611001565b3480156104d157600080fd5b506101c4600480360360408110156104e857600080fd5b50600160a060020a038135169060200135611010565b34801561050a57600080fd5b506102006004803603604081101561052157600080fd5b50600160a060020a038135169060200135611040565b34801561054357600080fd5b506101c46004803603602081101561055a57600080fd5b5035600160a060020a0316611626565b34801561057657600080fd5b506105ba600480360360a081101561058d57600080fd5b508035151590600160a060020a036020820135169060ff6040820135169060608101359060800135611641565b604080519115158252519081900360200190f35b3480156105da57600080fd5b506101c4600480360360208110156105f157600080fd5b5035600160a060020a03166116a4565b34801561060d57600080fd5b506102006004803603604081101561062457600080fd5b50600160a060020a0381351690602001356116bf565b34801561064657600080fd5b5061066d6004803603602081101561065d57600080fd5b5035600160a060020a031661183e565b60408051602080825283518183015283519192839290830191858101910280838360005b838110156106a9578181015183820152602001610691565b505050509050019250505060405180910390f35b3480156106c957600080fd5b5061040f600480360360408110156106e057600080fd5b50600160a060020a0381351690602001356118aa565b34801561070257600080fd5b506102006004803603602081101561071957600080fd5b5035600160a060020a03166119b8565b34801561073557600080fd5b506102006004803603604081101561074c57600080fd5b50600160a060020a0381351690602001356119db565b600254600160a060020a031681565b600160a060020a038083166000908152600360209081526040808320938516835292905220545b92915050565b336000908152600560205260409020548111156107ba57600080fd5b336000908152600560205260409020546107da908263ffffffff611b2b16565b3360008181526005602090815260408083209490945560025484517fa9059cbb0000000000000000000000000000000000000000000000000000000081526004810194909452602484018690529351600160a060020a039094169363a9059cbb93604480820194918390030190829087803b15801561085857600080fd5b505af115801561086c573d6000803e3d6000fd5b505050506040513d602081101561088257600080fd5b5051151561088f57600080fd5b336000818152600560209081526040918290205482518581529182015281517f1531d7b4ba7069f4371cc7ca3f8c84ffbe1c3fa83bb7a1177439cc50a47e842a929181900390910190a250565b600160a060020a03918216600090815260046020908152604080832093909416825291909152205490565b600160a060020a031660009081526006602052604090205490565b600360209081526000928352604080842090915290825290205481565b6000811161094c57600080fd5b600254604080517f23b872dd000000000000000000000000000000000000000000000000000000008152336004820152306024820152604481018490529051600160a060020a03909216916323b872dd916064808201926020929091908290030181600087803b1580156109bf57600080fd5b505af11580156109d3573d6000803e3d6000fd5b505050506040513d60208110156109e957600080fd5b505115156109f657600080fd5b33600090815260056020526040902054610a16908263ffffffff611b3d16565b33600081815260056020908152604091829020849055815185815290810193909352805191927f489bce0aaeb526aa80d6d9703ba873705b64bb7e38604f92af6c6f71ad6defbe929081900390910190a250565b600460209081526000928352604080842090915290825290205481565b610a8f611fd6565b600160a060020a038316600090815260076020908152604080832085845290915290819020815160e081019092528054829060ff166001811115610acf57fe5b6001811115610ada57fe5b81526001820154602082015260028201546040820152600390910154600160a060020a038116606083015260ff60a060020a820481161515608084015260a860020a82048116151560a084015260b060020a90910416151560c0918201528101519091508015610b4c57508060800151155b8015610b5a57508060a00151155b1515610b6557600080fd5b6060810151600160a060020a03163314610b7e57600080fd5b600081516001811115610b8d57fe5b1415610bbc57610bb733610bb283604001518460200151611b4a90919063ffffffff16565b611b73565b610bcb565b610bcb33848360400151611c4c565b600160a060020a0383166000818152600760209081526040808320868452825291829020600301805475ff000000000000000000000000000000000000000000191660a860020a179055815185815291517fafe5d45b77c7cea746dab67e30e6ca60c00cec51787feb121441c48ec20e3e579281900390910190a2505050565b600160a060020a0384161515610c6057600080fd5b6000836001811115610c6e57fe5b6001811115610c7957fe5b1480610c9b57506001836001811115610c8e57fe5b6001811115610c9957fe5b145b1515610ca657600080fd5b60008211610cb357600080fd5b60008111610cc057600080fd5b600154604080517fbb910c5d0000000000000000000000000000000000000000000000000000000081523360048201529051600160a060020a039092169163bb910c5d91602480820192602092909190829003018186803b158015610d2457600080fd5b505afa158015610d38573d6000803e3d6000fd5b505050506040513d6020811015610d4e57600080fd5b50511515610d5b57600080fd5b610d74600185856001811115610d6d57fe5b8585611641565b1515610d7f57600080fd5b6000836001811115610d8d57fe5b6001811115610d9857fe5b1415610dbc57610db733610db2848463ffffffff611b4a16565b611d66565b610dc7565b610dc7338583611e3f565b6000610dd285611626565b6001019050836001811115610de357fe5b600160a060020a03861660009081526007602090815260408083208584529091529020805460ff191660018381811115610e1957fe5b0217905550600160a060020a038516600081815260076020908152604080832085845282528083206001808201899055600282018890556003909101805460b060020a3373ffffffffffffffffffffffffffffffffffffffff19909216821776ff00000000000000000000000000000000000000000000191617909155858552600884528285208054928301815585529383902001859055805188815291820187905281810186905260608201929092526080810184905290517f691b0ce6bee678f58d226df692abb490a2c671242f081b7196cf486883942c0f9160a0908290030190a25050505050565b60066020526000908152604090205481565b600054600160a060020a03163314610f2e57600080fd5b60008054604051600160a060020a03909116917ff8df31144d9c2f0f6b59d69b8b98abd5459d07f2742c4df920b25aae33c6482091a26000805473ffffffffffffffffffffffffffffffffffffffff19169055565b6007602090815260009283526040808420909152908252902080546001820154600283015460039093015460ff928316939192600160a060020a0382169160a060020a810482169160a860020a820481169160b060020a90041687565b600154600160a060020a031681565b60056020526000908152604090205481565b600054600160a060020a031681565b60086020528160005260406000208181548110151561102b57fe5b90600052602060002001600091509150505481565b611048611fd6565b600160a060020a038316600090815260076020908152604080832085845290915290819020815160e081019092528054829060ff16600181111561108857fe5b600181111561109357fe5b81526001820154602082015260028201546040820152600390910154600160a060020a038116606083015260ff60a060020a820481161515608084015260a860020a82048116151560a084015260b060020a90910416151560c091820152810151909150801561110557508060800151155b801561111357508060a00151155b151561111e57600080fd5b6060810151600160a060020a031633141561113857600080fd5b600154604080517fbb910c5d0000000000000000000000000000000000000000000000000000000081523360048201529051600160a060020a039092169163bb910c5d91602480820192602092909190829003018186803b15801561119c57600080fd5b505afa1580156111b0573d6000803e3d6000fd5b505050506040513d60208110156111c657600080fd5b505115156111d357600080fd5b6111ed600084836000015184602001518560400151611641565b15156111f857600080fd5b60608101516040820151602083015133910260008451600181111561121957fe5b141561133b57604080850151600160a060020a03808916600090815260036020908152848220928816825291909152919091205461125c9163ffffffff611b3d16565b600160a060020a038781166000908152600360209081526040808320888516845290915280822093909355868301519185168152919091205461129e91611b2b565b600160a060020a03808816600090815260036020908152604080832093871683529281528282209390935560059092529020546112e1908263ffffffff611b3d16565b600160a060020a0380841660009081526005602090815260408083209490945591861681526006909152205461131d908263ffffffff611b2b16565b600160a060020a03841660009081526006602052604090205561145e565b604080850151600160a060020a0380891660009081526003602090815284822092871682529190915291909120546113789163ffffffff611b3d16565b600160a060020a03808816600081815260036020908152604080832088861684528252808320959095558885015192825260048152848220938816825292909252919020546113cc9163ffffffff611b2b16565b600160a060020a038088166000908152600460209081526040808320938816835292815282822093909355600590925290205461140f908263ffffffff611b3d16565b600160a060020a038085166000908152600560205260408082209390935590841681522054611444908263ffffffff611b2b16565b600160a060020a0383166000908152600560205260409020555b600160a060020a038087166000908152600360209081526040808320938716835292905290812054101561148e57fe5b600160a060020a03808716600090815260046020908152604080832093871683529290529081205410156114be57fe5b600160a060020a03831660009081526005602052604081205410156114df57fe5b600160a060020a038316600090815260066020526040812054101561150057fe5b600160a060020a038087166000908152600460209081526040808320938616835292905290812054101561153057fe5b600160a060020a038087166000908152600360209081526040808320938616835292905290812054101561156057fe5b600160a060020a038216600090815260066020526040812054101561158157fe5b600160a060020a03821660009081526005602052604081205410156115a257fe5b600160a060020a0386166000818152600760209081526040808320898452825291829020600301805474ff0000000000000000000000000000000000000000191660a060020a179055815188815291513393927f2d0250dd8054448aa84b8d0d89a0cfc0c02e0b31a862b1ecd9c133d3ae5eb71092908290030190a3505050505050565b600160a060020a031660009081526008602052604090205490565b600085156116945760005b84600181111561165857fe5b141561168057611667336116a4565b611677848463ffffffff611b4a16565b1115905061169b565b61168a8533610771565b821115905061169b565b600161164c565b95945050505050565b600160a060020a031660009081526005602052604090205490565b600160a060020a03821660009081526003602090815260408083203384529091529020548111156116ef57600080fd5b600160a060020a0382166000908152600360209081526040808320338452909152902054611723908263ffffffff611b2b16565b600160a060020a0383166000818152600360209081526040808320338085529083528184209590955580517fa9059cbb00000000000000000000000000000000000000000000000000000000815260048101959095526024850186905251929363a9059cbb9360448083019491928390030190829087803b1580156117a757600080fd5b505af11580156117bb573d6000803e3d6000fd5b505050506040513d60208110156117d157600080fd5b505115156117de57600080fd5b600160a060020a038216600081815260036020908152604080832033808552908352928190205481518681529283015280517f794e3032fd2f558523f703ae6c488d3069a78b2a513ec3b3fcb9abe5bd1c1da09281900390910190a35050565b600160a060020a03811660009081526008602090815260409182902080548351818402810184019094528084526060939283018282801561189e57602002820191906000526020600020905b81548152602001906001019080831161188a575b50505050509050919050565b60008060008060008060006118bd611fd6565b600160a060020a038a1660009081526007602090815260408083208c845290915290819020815160e081019092528054829060ff1660018111156118fd57fe5b600181111561190857fe5b815260018201546020808301919091526002830154604080840191909152600390930154600160a060020a03811660608085019190915260ff60a060020a83048116151560808087019190915260a860020a84048216151560a08088019190915260b060020a909404909116151560c095860152865193870151958701519187015190870151928701519690940151929d50939b5092995090975090955090935091505092959891949750929550565b600054600160a060020a031633146119cf57600080fd5b6119d881611f59565b50565b600081116119e857600080fd5b604080517f23b872dd000000000000000000000000000000000000000000000000000000008152336004820152306024820152604481018390529051600160a060020a038416916323b872dd9160648083019260209291908290030181600087803b158015611a5657600080fd5b505af1158015611a6a573d6000803e3d6000fd5b505050506040513d6020811015611a8057600080fd5b50511515611a8d57600080fd5b600160a060020a0382166000908152600360209081526040808320338452909152902054611ac1908263ffffffff611b3d16565b600160a060020a038316600081815260036020908152604080832033808552908352928190208590558051868152918201949094528351929391927f4466433a9d9e9d68780a1f6286a07c1c7a0e597fe1af747b4ea79d013628fc9e929181900390910190a35050565b600082821115611b3757fe5b50900390565b8181018281101561079857fe5b6000821515611b5b57506000610798565b50818102818382811515611b6b57fe5b041461079857fe5b600160a060020a038216600090815260066020526040902054811115611b9857600080fd5b600160a060020a038216600090815260066020526040902054611bc1908263ffffffff611b2b16565b600160a060020a038316600090815260066020908152604080832093909355600590522054611bf6908263ffffffff611b3d16565b600160a060020a038316600081815260056020908152604091829020939093558051848152905191927f46b5f1784b5a812966f1ee7c36f6e8bbddce19afbf6de0e34b7592705c42c9b192918290030190a25050565b600160a060020a03808316600090815260046020908152604080832093871683529290522054811115611c7e57600080fd5b600160a060020a03808316600090815260046020908152604080832093871683529290522054611cb4908263ffffffff611b2b16565b600160a060020a03808416600081815260046020908152604080832094891680845294825280832095909555918152600382528381209281529190522054611d02908263ffffffff611b3d16565b600160a060020a03808416600081815260036020908152604080832094891680845294825291829020949094558051858152905191937f4196a28d5c5451d5a3777724457826c6d34f3376f624046b5c7ac23046b3c9d092918290030190a3505050565b600160a060020a038216600090815260056020526040902054811115611d8b57600080fd5b600160a060020a038216600090815260056020526040902054611db4908263ffffffff611b2b16565b600160a060020a038316600090815260056020908152604080832093909355600690522054611de9908263ffffffff611b3d16565b600160a060020a038316600081815260066020908152604091829020939093558051848152905191927f988a6ca84ad3e663ccfdd4cb777e7943da80c301959c2ea09554baa15ffafd1e92918290030190a25050565b600160a060020a03808316600090815260036020908152604080832093871683529290522054811115611e7157600080fd5b600160a060020a03808316600090815260036020908152604080832093871683529290522054611ea7908263ffffffff611b2b16565b600160a060020a03808416600081815260036020908152604080832094891680845294825280832095909555918152600482528381209281529190522054611ef5908263ffffffff611b3d16565b600160a060020a03808416600081815260046020908152604080832094891680845294825291829020949094558051858152905191937f6898e2a0646eb6a49ca1d2b9ec02134d9f9fac3505c0914c8b184147eeffb10592918290030190a3505050565b600160a060020a0381161515611f6e57600080fd5b60008054604051600160a060020a03808516939216917f8be0079c531659141344cd1fd0a4f28419497f9722a3daafe3b4186f6b6457e091a36000805473ffffffffffffffffffffffffffffffffffffffff1916600160a060020a0392909216919091179055565b6040805160e08101909152806000815260006020820181905260408201819052606082018190526080820181905260a0820181905260c0909101529056fea165627a7a723058208539c8f7c7fbf80044f27a67db72eecf5d810bac434ad079257a8c5361f7feaf0029",
  "source": "pragma solidity ^0.5.0;\n\n\nimport './Ownable.sol';\nimport './Registry.sol';\nimport './CrowdOwned.sol';\nimport './CRWDToken.sol';\nimport './SafeMath.sol';\n\n\ncontract CrowdOwnedExchange is Ownable {\n  using SafeMath for uint;\n\n  /*\n   *  Events\n   */\n\n  event TokenDeposit(address indexed _userAddress, address indexed _tokenAddress, uint _amount, uint _balance);\n  event TokenWithdrawal(address indexed _userAddress, address indexed _tokenAddress, uint _amount, uint _balance);\n  event CRWDDeposit(address indexed _userAddress, uint _amount, uint _balance);\n  event CRWDWithdrawal(address indexed _userAddress, uint _amount, uint _balance);\n  event OrderCreated(address indexed _tokenAddress, uint _orderType, uint _price, uint _amount, address _userAddress, uint _orderId);\n  event OrderCanceled(address indexed _tokenAddress, uint _orderId);\n  event OrderTaken(address indexed _tokenAddress, uint _orderId, address indexed _takerAddress);\n  event LockedTokenBalance(address indexed _userAddress, address indexed _tokenAddress, uint amount);\n  event UnlockedTokenBalance(address indexed _userAddress, address indexed _tokenAddress, uint amount);\n  event LockedCrwdBalance(address indexed _userAddress, uint amount);\n  event UnlockedCrwdBalance(address indexed _userAddress, uint amount);\n\n  /*\n   * Storage\n   */\n  Registry public registry;\n\n  CRWDToken public crwdToken;\n\n  enum OrderType {BUY, SELL}\n\n  struct Order {\n    OrderType orderType;\n    uint price;\n    uint amount;\n    address userAddress;\n    bool executed;\n    bool canceled;\n    bool isOrder;\n  }\n\n  // Mapping of Token address => User Address => balance\n  mapping(address => mapping(address => uint)) public tokenBalances;\n\n  // Mapping of Token address => User Address => locked balance\n  mapping(address => mapping(address => uint)) public lockedTokenBalances;\n\n  // CRWDToken Balances by user\n  mapping(address => uint) public crwdBalances;\n\n  // CRWDToken Locked Balances by user\n  mapping(address => uint) public lockedCrwdBalances;\n\n  // Mapping of Token address => Order Id => Order\n  mapping(address => mapping(uint => Order)) public orders;\n\n  // Mapping of Token address => Order Ids\n  mapping(address => uint[]) public orderIds;\n\n  /*\n   * Constants\n   */\n\n  /*\n   * Public functions\n   */\n\n  /**\n  * @dev Contract constructor\n  * @param _registry Registry address\n  * @param _crwdToken CRWD Token address\n  */\n  constructor(Registry _registry, CRWDToken _crwdToken) public {\n    // prevent setting to null\n    require(address(_registry) != address(0));\n    require(address(_crwdToken) != address(0));\n\n    // set registry\n    registry = _registry;\n    // set crwdToken\n    crwdToken = _crwdToken;\n  }\n\n  /**\n  * @dev deposit tokens into the contract\n  * @param _token Token Address\n  * @param _amount Amount to deposit\n  */\n  function depositCrowdOwnedTokens(CrowdOwned _token, uint _amount) public {\n    require(_amount > 0);\n\n    // token.approve needs to be called beforehand\n    // transfer tokens from the user to the contract\n    require(_token.transferFrom(msg.sender, address(this), _amount));\n\n    // add the tokens to the user's balance\n    tokenBalances[address(_token)][msg.sender] = tokenBalances[address(_token)][msg.sender].add(_amount);\n\n    // Log event\n    emit TokenDeposit(msg.sender, address(_token), _amount, tokenBalances[address(_token)][msg.sender]);\n  }\n\n  /**\n  * @dev withdraw tokens from the contract\n  * @param _token Token Address\n  * @param _amount Amount to withdraw\n  */\n  function withdrawCrowdOwnedTokens(CrowdOwned _token, uint _amount) public {\n    require(tokenBalances[address(_token)][msg.sender] >= _amount);\n\n    // subtract the tokens from the user's balance\n    tokenBalances[address(_token)][msg.sender] = tokenBalances[address(_token)][msg.sender].sub(_amount);\n\n    // transfer tokens from the contract to the user\n    require(_token.transfer(msg.sender, _amount));\n\n    // Log event\n    emit TokenWithdrawal(msg.sender, address(_token), _amount, tokenBalances[address(_token)][msg.sender]);\n  }\n\n  /**\n  * @dev Get user token balance\n  * @param _userAddress User Address\n  */\n  function tokenBalanceOf(address _token, address _userAddress) view public returns (uint) {\n    return tokenBalances[_token][_userAddress];\n  }\n\n  /**\n  * @dev Get user locked token balance\n  * @param _userAddress User Address\n  */\n  function lockedTokenBalanceOf(address _token, address _userAddress) view public returns (uint) {\n    return lockedTokenBalances[_token][_userAddress];\n  }\n\n  /**\n  * @dev deposit CRWD tokens into the contract\n  * @param _amount Amount to deposit\n  */\n  function depositCRWDTokens(uint _amount) public {\n    require(_amount > 0);\n\n    // token.approve needs to be called beforehand\n    // transfer tokens from the user to the contract\n    require(crwdToken.transferFrom(msg.sender, address(this), _amount));\n\n    // add the tokens to the user's balance\n    crwdBalances[msg.sender] = crwdBalances[msg.sender].add(_amount);\n\n    // Log event\n    emit CRWDDeposit(msg.sender, _amount, crwdBalances[msg.sender]);\n  }\n\n  /**\n  * @dev withdraw CRWD tokens from the contract\n  * @param _amount Amount to withdraw\n  */\n  function withdrawCRWDTokens(uint _amount) public {\n    require(crwdBalances[msg.sender] >= _amount);\n\n    // subtract the tokens from the user's balance\n    crwdBalances[msg.sender] = crwdBalances[msg.sender].sub(_amount);\n\n    // transfer tokens from the contract to the user\n    require(crwdToken.transfer(msg.sender, _amount));\n\n    // Log event\n    emit CRWDWithdrawal(msg.sender, _amount, crwdBalances[msg.sender]);\n  }\n\n  /**\n  * @dev Get user CRWD token balance\n  * @param _userAddress User Address\n  */\n  function crwdBalanceOf(address _userAddress) view public returns (uint) {\n    return crwdBalances[_userAddress];\n  }\n\n  /**\n  * @dev Get user locked CRWD token balance\n  * @param _userAddress User Address\n  */\n  function lockedCrwdBalanceOf(address _userAddress) view public returns (uint) {\n    return lockedCrwdBalances[_userAddress];\n  }\n\n  /**\n  * @dev Create order\n  * @param _tokenAddress Token Address\n  * @param _orderType Order Type\n  * @param _price Price\n  * @param _amount Amount\n  */\n  function createOrder(address _tokenAddress, uint _orderType, uint _price, uint _amount) public {\n    // check params\n    require(_tokenAddress != address(0));\n    require(OrderType(_orderType) == OrderType.BUY || OrderType(_orderType) == OrderType.SELL);\n    require(_price > 0);\n    require(_amount > 0);\n\n    // check verified registry user\n    require(registry.isVerifiedAndValid(msg.sender));\n    // check balance is sufficient\n    require(isBalanceSufficient(true, _tokenAddress, OrderType(_orderType), _price, _amount));\n\n    // lock user balance\n    if (OrderType(_orderType) == OrderType.BUY) {\n      lockCrwdBalance(msg.sender, _price.mul(_amount));\n    }\n    else {\n      lockTokenBalance(msg.sender, _tokenAddress, _amount);\n    }\n\n    // create order\n    uint orderId = getOrdersLength(_tokenAddress) + 1;\n    orders[_tokenAddress][orderId].orderType = OrderType(_orderType);\n    orders[_tokenAddress][orderId].price = _price;\n    orders[_tokenAddress][orderId].amount = _amount;\n    orders[_tokenAddress][orderId].userAddress = msg.sender;\n    orders[_tokenAddress][orderId].isOrder = true;\n    orderIds[_tokenAddress].push(orderId);\n\n    // Log event\n    emit OrderCreated(_tokenAddress, _orderType, _price, _amount, msg.sender, orderId);\n  }\n\n  /**\n  * @dev Lock user token balance  \n  * @param _userAddress User Address\n  * @param _tokenAddress Token Address\n  * @param _amount Amount to be locked\n  */\n  function lockTokenBalance(address _userAddress, address _tokenAddress, uint _amount) internal {\n    require(tokenBalances[_tokenAddress][_userAddress] >= _amount);\n\n    // subtract the tokens from the user's balance\n    tokenBalances[_tokenAddress][_userAddress] = tokenBalances[_tokenAddress][_userAddress].sub(_amount);\n\n    // add the tokens to the user's locked balance\n    lockedTokenBalances[_tokenAddress][_userAddress] = lockedTokenBalances[_tokenAddress][_userAddress].add(_amount);\n\n    emit LockedTokenBalance(_userAddress, _tokenAddress, _amount);\n  }\n\n  /**\n  * @dev Unlock user token balance  \n  * @param _userAddress User Address\n  * @param _tokenAddress Token Address\n  * @param _amount Amount to be unlocked\n  */\n  function unlockTokenBalance(address _userAddress, address _tokenAddress, uint _amount) internal {\n    require(lockedTokenBalances[_tokenAddress][_userAddress] >= _amount);\n\n    // subtract the tokens from the user's locked balance\n    lockedTokenBalances[_tokenAddress][_userAddress] = lockedTokenBalances[_tokenAddress][_userAddress].sub(_amount);\n\n    // add the tokens to the user's balance\n    tokenBalances[_tokenAddress][_userAddress] = tokenBalances[_tokenAddress][_userAddress].add(_amount);\n\n    emit UnlockedTokenBalance(_userAddress, _tokenAddress, _amount);\n  }\n\n  /**\n  * @dev Lock user crwd balance\n  * @param _userAddress User Address\n  * @param _amount Amount to be locked\n  */\n  function lockCrwdBalance(address _userAddress, uint _amount) internal {\n    require(crwdBalances[_userAddress] >= _amount);\n\n    // subtract the tokens from the user's balance\n    crwdBalances[_userAddress] = crwdBalances[_userAddress].sub(_amount);\n\n    // add the tokens to the user's locked balance\n    lockedCrwdBalances[_userAddress] = lockedCrwdBalances[_userAddress].add(_amount);\n\n    emit LockedCrwdBalance(_userAddress, _amount);\n  }\n\n  /**\n  * @dev Unlock user crwd balance\n  * @param _userAddress User Address\n  * @param _amount Amount to be unlocked\n  */\n  function unlockCrwdBalance(address _userAddress, uint _amount) internal {\n    require(lockedCrwdBalances[_userAddress] >= _amount);\n\n    // subtract the tokens from the user's locked balance\n    lockedCrwdBalances[_userAddress] = lockedCrwdBalances[_userAddress].sub(_amount);\n\n    // add the tokens to the user's balance\n    crwdBalances[_userAddress] = crwdBalances[_userAddress].add(_amount);\n\n    emit UnlockedCrwdBalance(_userAddress, _amount);\n  }\n\n  /**\n  * @dev Is balance sufficient for order making/taking\n  * @param _isMaker Is the user making or taking an order\n  * @param _tokenAddress Token Address\n  * @param _orderType Order Type\n  * @param _price Price\n  * @param _amount Amount\n  */\n  function isBalanceSufficient(bool _isMaker, address _tokenAddress, OrderType _orderType, uint _price, uint _amount) view public returns (bool){\n    if (_isMaker) {\n      if (_orderType == OrderType.BUY) {\n        return _price.mul(_amount) <= crwdBalanceOf(msg.sender);\n      }\n      else {\n        return _amount <= tokenBalanceOf(_tokenAddress, msg.sender);\n      }\n    }\n    else {\n      if (_orderType == OrderType.SELL) {\n        return _price.mul(_amount) <= crwdBalanceOf(msg.sender);\n      }\n      else {\n        return _amount <= tokenBalanceOf(_tokenAddress, msg.sender);\n      }\n    }\n  }\n\n  /**\n  * @dev Get number of orders per token\n  * @param _tokenAddress Token Address\n  */\n  function getOrdersLength(address _tokenAddress) view public returns (uint length){\n    return orderIds[_tokenAddress].length;\n  }\n\n  /**\n  * @dev Get order ids\n  * @param _tokenAddress Token Address\n  */\n  function getOrderIds(address _tokenAddress) public view returns (uint[] memory)  {\n    return orderIds[_tokenAddress];\n  }\n\n  /**\n  * @dev Get order\n  * @param _tokenAddress Token Address\n  * @param _id Order id\n  */\n  function getOrder(address _tokenAddress, uint _id) view public\n  returns (OrderType orderType, uint price, uint amount, address userAddress, bool executed, bool canceled, bool isOrder){\n    Order memory order = orders[_tokenAddress][_id];\n    return (order.orderType, order.price, order.amount, order.userAddress, order.executed, order.canceled, order.isOrder);\n  }\n\n  /**\n  * @dev Cancel order\n  * @param _tokenAddress Token Address\n  * @param _id Order id\n  */\n  function cancelOrder(address _tokenAddress, uint _id) public {\n    Order memory order = orders[_tokenAddress][_id];\n\n    // check order exists and not canceled or executed\n    require(order.isOrder && !order.executed && !order.canceled);\n    // check order belongs to sender\n    require(order.userAddress == msg.sender);\n\n    // unlock balance\n    if (order.orderType == OrderType.BUY) {\n      unlockCrwdBalance(msg.sender, order.price.mul(order.amount));\n    }\n    else {\n      unlockTokenBalance(msg.sender, _tokenAddress, order.amount);\n    }\n\n    // cancel order\n    orders[_tokenAddress][_id].canceled = true;\n\n    // Log event\n    emit OrderCanceled(_tokenAddress, _id);\n  }\n\n  /**\n  * @dev Take order\n  * @param _tokenAddress Token Address\n  * @param _id Order id\n  */\n  function takeOrder(address _tokenAddress, uint _id) public {\n    Order memory order = orders[_tokenAddress][_id];\n\n    // check order exists and not canceled or executed\n    require(order.isOrder && !order.executed && !order.canceled);\n    // check order does not belongs to sender\n    require(order.userAddress != msg.sender);\n    // check verified registry user\n    require(registry.isVerifiedAndValid(msg.sender));\n    // check balance is sufficient\n    require(isBalanceSufficient(false, _tokenAddress, order.orderType, order.price, order.amount));\n\n    address makerAddress = order.userAddress;\n    address takerAddress = msg.sender;\n    uint dealPrice = order.price * order.amount;\n\n    // take order\n    if (order.orderType == OrderType.BUY) {\n      // add tokens to the maker's balance\n      tokenBalances[_tokenAddress][makerAddress] = tokenBalances[_tokenAddress][makerAddress].add(order.amount);\n      // withdraw tokens from the taker's balance\n      tokenBalances[_tokenAddress][takerAddress] = tokenBalances[_tokenAddress][takerAddress].sub(order.amount);\n\n      // add crwd to the taker's balance\n      crwdBalances[takerAddress] = crwdBalances[takerAddress].add(dealPrice);\n      // withdraw crwd from the maker's locked balance\n      lockedCrwdBalances[makerAddress] = lockedCrwdBalances[makerAddress].sub(dealPrice);\n    }\n    else {\n      // add tokens to the taker's balance\n      tokenBalances[_tokenAddress][takerAddress] = tokenBalances[_tokenAddress][takerAddress].add(order.amount);\n      // withdraw tokens from the maker's locked balance\n      lockedTokenBalances[_tokenAddress][makerAddress] = lockedTokenBalances[_tokenAddress][makerAddress].sub(order.amount);\n\n      // add crwd to the maker's balance\n      crwdBalances[makerAddress] = crwdBalances[makerAddress].add(dealPrice);\n      // withdraw crwd from the taker's balance\n      crwdBalances[takerAddress] = crwdBalances[takerAddress].sub(dealPrice);\n    }\n\n    // make sure balances are still positive\n    assert(tokenBalances[_tokenAddress][makerAddress] >= 0);\n    assert(lockedTokenBalances[_tokenAddress][makerAddress] >= 0);\n    assert(crwdBalances[makerAddress] >= 0);\n    assert(lockedCrwdBalances[makerAddress] >= 0);\n\n    assert(lockedTokenBalances[_tokenAddress][takerAddress] >= 0);\n    assert(tokenBalances[_tokenAddress][takerAddress] >= 0);\n    assert(lockedCrwdBalances[takerAddress] >= 0);\n    assert(crwdBalances[takerAddress] >= 0);\n\n    // mark order executed\n    orders[_tokenAddress][_id].executed = true;\n\n    // Log event\n    emit OrderTaken(_tokenAddress, _id, msg.sender);\n  }\n\n}",
  "sourcePath": "/Users/didil/work/projects/ethereum/crwd-prototype/contracts/CrowdOwnedExchange.sol",
  "compiler": {
    "name": "solc",
    "version": "0.5.0+commit.1d4f565a.Emscripten.clang"
  },
  "schemaVersion": "3.0.1",
  "updatedAt": "2019-01-15T09:58:49.578Z",
  "devdoc": {
    "methods": {
      "cancelOrder(address,uint256)": {
        "details": "Cancel order",
        "params": {
          "_id": "Order id",
          "_tokenAddress": "Token Address"
        }
      },
      "constructor": {
        "details": "Contract constructor",
        "params": {
          "_crwdToken": "CRWD Token address",
          "_registry": "Registry address"
        }
      },
      "createOrder(address,uint256,uint256,uint256)": {
        "details": "Create order",
        "params": {
          "_amount": "Amount",
          "_orderType": "Order Type",
          "_price": "Price",
          "_tokenAddress": "Token Address"
        }
      },
      "crwdBalanceOf(address)": {
        "details": "Get user CRWD token balance",
        "params": {
          "_userAddress": "User Address"
        }
      },
      "depositCRWDTokens(uint256)": {
        "details": "deposit CRWD tokens into the contract",
        "params": {
          "_amount": "Amount to deposit"
        }
      },
      "depositCrowdOwnedTokens(address,uint256)": {
        "details": "deposit tokens into the contract",
        "params": {
          "_amount": "Amount to deposit",
          "_token": "Token Address"
        }
      },
      "getOrder(address,uint256)": {
        "details": "Get order",
        "params": {
          "_id": "Order id",
          "_tokenAddress": "Token Address"
        }
      },
      "getOrderIds(address)": {
        "details": "Get order ids",
        "params": {
          "_tokenAddress": "Token Address"
        }
      },
      "getOrdersLength(address)": {
        "details": "Get number of orders per token",
        "params": {
          "_tokenAddress": "Token Address"
        }
      },
      "isBalanceSufficient(bool,address,uint8,uint256,uint256)": {
        "details": "Is balance sufficient for order making/taking",
        "params": {
          "_amount": "Amount",
          "_isMaker": "Is the user making or taking an order",
          "_orderType": "Order Type",
          "_price": "Price",
          "_tokenAddress": "Token Address"
        }
      },
      "lockedCrwdBalanceOf(address)": {
        "details": "Get user locked CRWD token balance",
        "params": {
          "_userAddress": "User Address"
        }
      },
      "lockedTokenBalanceOf(address,address)": {
        "details": "Get user locked token balance",
        "params": {
          "_userAddress": "User Address"
        }
      },
      "renounceOwnership()": {
        "details": "Allows the current owner to relinquish control of the contract."
      },
      "takeOrder(address,uint256)": {
        "details": "Take order",
        "params": {
          "_id": "Order id",
          "_tokenAddress": "Token Address"
        }
      },
      "tokenBalanceOf(address,address)": {
        "details": "Get user token balance",
        "params": {
          "_userAddress": "User Address"
        }
      },
      "transferOwnership(address)": {
        "details": "Allows the current owner to transfer control of the contract to a newOwner.",
        "params": {
          "_newOwner": "The address to transfer ownership to."
        }
      },
      "withdrawCRWDTokens(uint256)": {
        "details": "withdraw CRWD tokens from the contract",
        "params": {
          "_amount": "Amount to withdraw"
        }
      },
      "withdrawCrowdOwnedTokens(address,uint256)": {
        "details": "withdraw tokens from the contract",
        "params": {
          "_amount": "Amount to withdraw",
          "_token": "Token Address"
        }
      }
    }
  },
  "userdoc": {
    "methods": {
      "renounceOwnership()": {
        "notice": "Renouncing to ownership will leave the contract without an owner. It will not be possible to call the functions with the `onlyOwner` modifier anymore."
      }
    }
  }
}