{
  "contractName": "CrowdOwnedManager",
  "abi": [
    {
      "constant": true,
      "inputs": [],
      "name": "crwdToken",
      "outputs": [
        {
          "name": "",
          "type": "address"
        }
      ],
      "payable": false,
      "stateMutability": "view",
      "type": "function",
      "signature": "0x07cec992"
    },
    {
      "constant": true,
      "inputs": [],
      "name": "crowdOwnedExchange",
      "outputs": [
        {
          "name": "",
          "type": "address"
        }
      ],
      "payable": false,
      "stateMutability": "view",
      "type": "function",
      "signature": "0x2e562302"
    },
    {
      "constant": true,
      "inputs": [
        {
          "name": "",
          "type": "uint256"
        }
      ],
      "name": "contractsAddresses",
      "outputs": [
        {
          "name": "",
          "type": "address"
        }
      ],
      "payable": false,
      "stateMutability": "view",
      "type": "function",
      "signature": "0x49c0d851"
    },
    {
      "constant": true,
      "inputs": [
        {
          "name": "",
          "type": "address"
        }
      ],
      "name": "contractsData",
      "outputs": [
        {
          "name": "name",
          "type": "string"
        },
        {
          "name": "symbol",
          "type": "string"
        },
        {
          "name": "isContractData",
          "type": "bool"
        }
      ],
      "payable": false,
      "stateMutability": "view",
      "type": "function",
      "signature": "0x4d580453"
    },
    {
      "constant": false,
      "inputs": [],
      "name": "renounceOwnership",
      "outputs": [],
      "payable": false,
      "stateMutability": "nonpayable",
      "type": "function",
      "signature": "0x715018a6"
    },
    {
      "constant": true,
      "inputs": [],
      "name": "registry",
      "outputs": [
        {
          "name": "",
          "type": "address"
        }
      ],
      "payable": false,
      "stateMutability": "view",
      "type": "function",
      "signature": "0x7b103999"
    },
    {
      "constant": true,
      "inputs": [],
      "name": "owner",
      "outputs": [
        {
          "name": "",
          "type": "address"
        }
      ],
      "payable": false,
      "stateMutability": "view",
      "type": "function",
      "signature": "0x8da5cb5b"
    },
    {
      "constant": false,
      "inputs": [
        {
          "name": "_newOwner",
          "type": "address"
        }
      ],
      "name": "transferOwnership",
      "outputs": [],
      "payable": false,
      "stateMutability": "nonpayable",
      "type": "function",
      "signature": "0xf2fde38b"
    },
    {
      "inputs": [
        {
          "name": "_registry",
          "type": "address"
        },
        {
          "name": "_crwdToken",
          "type": "address"
        },
        {
          "name": "_crowdOwnedExchange",
          "type": "address"
        }
      ],
      "payable": false,
      "stateMutability": "nonpayable",
      "type": "constructor",
      "signature": "constructor"
    },
    {
      "anonymous": false,
      "inputs": [
        {
          "indexed": true,
          "name": "contractAddress",
          "type": "address"
        },
        {
          "indexed": false,
          "name": "name",
          "type": "string"
        },
        {
          "indexed": false,
          "name": "symbol",
          "type": "string"
        },
        {
          "indexed": false,
          "name": "imageUrl",
          "type": "string"
        }
      ],
      "name": "CrowdOwnedDeployed",
      "type": "event",
      "signature": "0x463f70fac261318b40a9bbacbbf984c35eb79443f4ede2425d328db1c14d50bc"
    },
    {
      "anonymous": false,
      "inputs": [
        {
          "indexed": true,
          "name": "previousOwner",
          "type": "address"
        }
      ],
      "name": "OwnershipRenounced",
      "type": "event",
      "signature": "0xf8df31144d9c2f0f6b59d69b8b98abd5459d07f2742c4df920b25aae33c64820"
    },
    {
      "anonymous": false,
      "inputs": [
        {
          "indexed": true,
          "name": "previousOwner",
          "type": "address"
        },
        {
          "indexed": true,
          "name": "newOwner",
          "type": "address"
        }
      ],
      "name": "OwnershipTransferred",
      "type": "event",
      "signature": "0x8be0079c531659141344cd1fd0a4f28419497f9722a3daafe3b4186f6b6457e0"
    },
    {
      "constant": false,
      "inputs": [
        {
          "name": "_name",
          "type": "string"
        },
        {
          "name": "_symbol",
          "type": "string"
        },
        {
          "name": "_imageUrl",
          "type": "string"
        }
      ],
      "name": "deployCrowdOwned",
      "outputs": [],
      "payable": false,
      "stateMutability": "nonpayable",
      "type": "function",
      "signature": "0x3aef024b"
    },
    {
      "constant": true,
      "inputs": [],
      "name": "getContractsAddresses",
      "outputs": [
        {
          "name": "",
          "type": "address[]"
        }
      ],
      "payable": false,
      "stateMutability": "view",
      "type": "function",
      "signature": "0x5f34b070"
    }
  ],
  "bytecode": "0x608060405234801561001057600080fd5b506040516060806126e78339810180604052606081101561003057600080fd5b508051602082015160409092015160008054600160a060020a0319908116331790915560018054600160a060020a039485169083161790556002805494841694821694909417909355600380549290911691909216179055612650806100976000396000f3fe608060405260043610620000ae5763ffffffff7c010000000000000000000000000000000000000000000000000000000060003504166307cec9928114620000b35780632e56230214620000e75780633aef024b14620000ff57806349c0d85114620002cf5780634d58045314620002fd5780635f34b0701462000423578063715018a6146200048d5780637b10399914620004a55780638da5cb5b14620004bd578063f2fde38b14620004d5575b600080fd5b348015620000c057600080fd5b50620000cb6200050c565b60408051600160a060020a039092168252519081900360200190f35b348015620000f457600080fd5b50620000cb6200051b565b3480156200010c57600080fd5b50620002cd600480360360608110156200012557600080fd5b8101906020810181356401000000008111156200014157600080fd5b8201836020820111156200015457600080fd5b803590602001918460018302840111640100000000831117156200017757600080fd5b91908080601f0160208091040260200160405190810160405280939291908181526020018383808284376000920191909152509295949360208101935035915050640100000000811115620001cb57600080fd5b820183602082011115620001de57600080fd5b803590602001918460018302840111640100000000831117156200020157600080fd5b91908080601f01602080910402602001604051908101604052809392919081815260200183838082843760009201919091525092959493602081019350359150506401000000008111156200025557600080fd5b8201836020820111156200026857600080fd5b803590602001918460018302840111640100000000831117156200028b57600080fd5b91908080601f0160208091040260200160405190810160405280939291908181526020018383808284376000920191909152509295506200052a945050505050565b005b348015620002dc57600080fd5b50620000cb60048036036020811015620002f557600080fd5b5035620009c2565b3480156200030a57600080fd5b5062000334600480360360208110156200032357600080fd5b5035600160a060020a0316620009eb565b60405180806020018060200184151515158152602001838103835286818151815260200191508051906020019080838360005b838110156200038157818101518382015260200162000367565b50505050905090810190601f168015620003af5780820380516001836020036101000a031916815260200191505b50838103825285518152855160209182019187019080838360005b83811015620003e4578181015183820152602001620003ca565b50505050905090810190601f168015620004125780820380516001836020036101000a031916815260200191505b509550505050505060405180910390f35b3480156200043057600080fd5b506200043b62000b3b565b60408051602080825283518183015283519192839290830191858101910280838360005b83811015620004795781810151838201526020016200045f565b505050509050019250505060405180910390f35b3480156200049a57600080fd5b50620002cd62000ba0565b348015620004b257600080fd5b50620000cb62000c0d565b348015620004ca57600080fd5b50620000cb62000c1c565b348015620004e257600080fd5b50620002cd60048036036020811015620004fb57600080fd5b5035600160a060020a031662000c2b565b600254600160a060020a031681565b600354600160a060020a031681565b600154604080517fa91079c20000000000000000000000000000000000000000000000000000000081523360048201529051600160a060020a039092169163a91079c291602480820192602092909190829003018186803b1580156200058f57600080fd5b505afa158015620005a4573d6000803e3d6000fd5b505050506040513d6020811015620005bb57600080fd5b50511515620005c957600080fd5b6001546003546000918591859185913391600160a060020a039081169116620005f162000ccf565b600160a060020a0380851660608301528381166080830152821660a082015260c080825287519082015286518190602080830191604084019160e0850191908c019080838360005b838110156200065357818101518382015260200162000639565b50505050905090810190601f168015620006815780820380516001836020036101000a031916815260200191505b5084810383528951815289516020918201918b019080838360005b83811015620006b65781810151838201526020016200069c565b50505050905090810190601f168015620006e45780820380516001836020036101000a031916815260200191505b5084810382528851815288516020918201918a019080838360005b8381101562000719578181015183820152602001620006ff565b50505050905090810190601f168015620007475780820380516001836020036101000a031916815260200191505b509950505050505050505050604051809103906000f08015801562000770573d6000803e3d6000fd5b50600160a060020a038116600090815260046020908152604090912086519293508392620007a19288019062000ce0565b50600160a060020a03811660009081526004602090815260409091208551620007d39260019092019187019062000ce0565b50600160a060020a0381166000818152600460209081526040808320600201805460ff1916600190811790915560058054918201815584527f036b6384b5eca791c62761152d0c79bb0604c104a5fb6f4eb0703f3154bb3db001805473ffffffffffffffffffffffffffffffffffffffff191685179055805160608082528a519082015289517f463f70fac261318b40a9bbacbbf984c35eb79443f4ede2425d328db1c14d50bc948b948b948b9493849384840193928501926080860192908a01918190849084905b83811015620008b65781810151838201526020016200089c565b50505050905090810190601f168015620008e45780820380516001836020036101000a031916815260200191505b50848103835286518152865160209182019188019080838360005b8381101562000919578181015183820152602001620008ff565b50505050905090810190601f168015620009475780820380516001836020036101000a031916815260200191505b50848103825285518152855160209182019187019080838360005b838110156200097c57818101518382015260200162000962565b50505050905090810190601f168015620009aa5780820380516001836020036101000a031916815260200191505b50965050505050505060405180910390a25050505050565b6005805482908110620009d157fe5b600091825260209091200154600160a060020a0316905081565b60046020908152600091825260409182902080548351601f6002600019610100600186161502019093169290920491820184900484028101840190945280845290929183919083018282801562000a865780601f1062000a5a5761010080835404028352916020019162000a86565b820191906000526020600020905b81548152906001019060200180831162000a6857829003601f168201915b505050505090806001018054600181600116156101000203166002900480601f01602080910402602001604051908101604052809291908181526020018280546001816001161561010002031660029004801562000b285780601f1062000afc5761010080835404028352916020019162000b28565b820191906000526020600020905b81548152906001019060200180831162000b0a57829003601f168201915b5050506002909301549192505060ff1683565b6060600580548060200260200160405190810160405280929190818152602001828054801562000b9557602002820191906000526020600020905b8154600160a060020a0316815260019091019060200180831162000b76575b505050505090505b90565b600054600160a060020a0316331462000bb857600080fd5b60008054604051600160a060020a03909116917ff8df31144d9c2f0f6b59d69b8b98abd5459d07f2742c4df920b25aae33c6482091a26000805473ffffffffffffffffffffffffffffffffffffffff19169055565b600154600160a060020a031681565b600054600160a060020a031681565b600054600160a060020a0316331462000c4357600080fd5b62000c4e8162000c51565b50565b600160a060020a038116151562000c6757600080fd5b60008054604051600160a060020a03808516939216917f8be0079c531659141344cd1fd0a4f28419497f9722a3daafe3b4186f6b6457e091a36000805473ffffffffffffffffffffffffffffffffffffffff1916600160a060020a0392909216919091179055565b6040516118a28062000d8383390190565b828054600181600116156101000203166002900490600052602060002090601f016020900481019282601f1062000d2357805160ff191683800117855562000d53565b8280016001018555821562000d53579182015b8281111562000d5357825182559160200191906001019062000d36565b5062000d6192915062000d65565b5090565b62000b9d91905b8082111562000d61576000815560010162000d6c56fe60806040523480156200001157600080fd5b50604051620018a2380380620018a2833981018060405260c08110156200003757600080fd5b8101908080516401000000008111156200005057600080fd5b820160208101848111156200006457600080fd5b81516401000000008111828201871017156200007f57600080fd5b505092919060200180516401000000008111156200009c57600080fd5b82016020810184811115620000b057600080fd5b8151640100000000811182820187101715620000cb57600080fd5b50509291906020018051640100000000811115620000e857600080fd5b82016020810184811115620000fc57600080fd5b81516401000000008111828201871017156200011757600080fd5b50506020820151604083015160609093015160038054600160a060020a031916331790559194509250600160a060020a03821615156200015657600080fd5b600160a060020a03811615156200016c57600080fd5b600160a060020a03831615156200018257600080fd5b855162000197906006906020890190620002c2565b508451620001ad906007906020880190620002c2565b508351620001c3906008906020870190620002c2565b5060038054600160a060020a03808616600160a060020a03199283168117909355600480548683169084161790556005805491851691909216179055620186a06001819055600091825260208290526040909120556200022c8364010000000062000238810204565b50505050505062000367565b600160a060020a03811660009081526009602052604090205460ff161515620002bf57600a805460018082019092557fc65a7bb8d6351c1cf70c95a316cc6a92839c986682d98bc35f958f4883f9d2a8018054600160a060020a031916600160a060020a0384169081179091556000908152600960205260409020805460ff191690911790555b50565b828054600181600116156101000203166002900490600052602060002090601f016020900481019282601f106200030557805160ff191683800117855562000335565b8280016001018555821562000335579182015b828111156200033557825182559160200191906001019062000318565b506200034392915062000347565b5090565b6200036491905b808211156200034357600081556001016200034e565b90565b61152b80620003776000396000f3fe60806040526004361061017f5763ffffffff7c010000000000000000000000000000000000000000000000000000000060003504166306fdde0381146101ba578063095ea7b3146102445780630f310b171461029157806318160ddd146102d757806320870af8146102fe57806323b872dd1461033657806325ed2a1e1461037957806326ad3276146103de5780632e562302146104085780632ff2e9dc1461041d5780633bd18a3b14610432578063661884631461048457806370a08231146104bd578063715018a6146104f05780637b10399914610505578063869dc3931461051a5780638da5cb5b1461052f5780639358928b1461054457806394c453281461055957806395d89b4114610583578063a9059cbb14610598578063a91ee0dc146105d1578063aba8315014610604578063c56385e914610619578063c60f2c331461062e578063cbf0b0c014610678578063d73dd623146106ab578063dd62ed3e146106e4578063f2fde38b1461071f578063f5e13a3714610752575b60408051438152346020820152815133927ffe33f0811fa6888b448cede42592cdfff185bcfc222993b1be8ac00c1eabfa01928290030190a2005b3480156101c657600080fd5b506101cf610785565b6040805160208082528351818301528351919283929083019185019080838360005b838110156102095781810151838201526020016101f1565b50505050905090810190601f1680156102365780820380516001836020036101000a031916815260200191505b509250505060405180910390f35b34801561025057600080fd5b5061027d6004803603604081101561026757600080fd5b50600160a060020a038135169060200135610813565b604080519115158252519081900360200190f35b34801561029d57600080fd5b506102bb600480360360208110156102b457600080fd5b5035610879565b60408051600160a060020a039092168252519081900360200190f35b3480156102e357600080fd5b506102ec6108a1565b60408051918252519081900360200190f35b34801561030a57600080fd5b506103346004803603606081101561032157600080fd5b50803590602081013590604001356108a8565b005b34801561034257600080fd5b5061027d6004803603606081101561035957600080fd5b50600160a060020a0381358116916020810135909116906040013561096c565b34801561038557600080fd5b5061038e61099e565b60408051602080825283518183015283519192839290830191858101910280838360005b838110156103ca5781810151838201526020016103b2565b505050509050019250505060405180910390f35b3480156103ea57600080fd5b506103346004803603602081101561040157600080fd5b5035610a00565b34801561041457600080fd5b506102bb610a64565b34801561042957600080fd5b506102ec610a73565b34801561043e57600080fd5b5061045c6004803603602081101561045557600080fd5b5035610a7a565b6040805194855260208501939093528383019190915215156060830152519081900360800190f35b34801561049057600080fd5b5061027d600480360360408110156104a757600080fd5b50600160a060020a038135169060200135610ac7565b3480156104c957600080fd5b506102ec600480360360208110156104e057600080fd5b5035600160a060020a0316610bb6565b3480156104fc57600080fd5b50610334610bd1565b34801561051157600080fd5b506102bb610c3f565b34801561052657600080fd5b506102ec610c4e565b34801561053b57600080fd5b506102bb610c54565b34801561055057600080fd5b506102ec610c63565b34801561056557600080fd5b506102ec6004803603602081101561057c57600080fd5b5035610c7c565b34801561058f57600080fd5b506101cf610c9b565b3480156105a457600080fd5b5061027d600480360360408110156105bb57600080fd5b50600160a060020a038135169060200135610cf6565b3480156105dd57600080fd5b50610334600480360360208110156105f457600080fd5b5035600160a060020a0316610d26565b34801561061057600080fd5b506101cf610d81565b34801561062557600080fd5b506102ec610ddc565b34801561063a57600080fd5b506106586004803603602081101561065157600080fd5b5035610e52565b604080519384526020840192909252151582820152519081900360600190f35b34801561068457600080fd5b506103346004803603602081101561069b57600080fd5b5035600160a060020a0316610e76565b3480156106b757600080fd5b5061027d600480360360408110156106ce57600080fd5b50600160a060020a038135169060200135610fc8565b3480156106f057600080fd5b506102ec6004803603604081101561070757600080fd5b50600160a060020a0381358116916020013516611061565b34801561072b57600080fd5b506103346004803603602081101561074257600080fd5b5035600160a060020a031661108c565b34801561075e57600080fd5b5061027d6004803603602081101561077557600080fd5b5035600160a060020a03166110af565b6006805460408051602060026001851615610100026000190190941693909304601f8101849004840282018401909252818152929183018282801561080b5780601f106107e05761010080835404028352916020019161080b565b820191906000526020600020905b8154815290600101906020018083116107ee57829003601f168201915b505050505081565b336000818152600260209081526040808320600160a060020a038716808552908352818420869055815186815291519394909390927f8c5be1e5ebec7d5bd14f71427d1e84f3dd0314c0f7b2291e5b200ac8c7c3b925928290030190a350600192915050565b600a80548290811061088757fe5b600091825260209091200154600160a060020a0316905081565b6001545b90565b600354600160a060020a031633146108bf57600080fd5b6108c7610ddc565b83116108d257600080fd5b6000838152600b6020908152604080832085815560018082018690556002909101805460ff191682179055600c805491820181559093527fdf6966c971051c3d54ec59162606531493a51404a002842f56009d7e5cf4a8c79092018590558151848152908101839052815185927fe939d6b4a7313c743795dbb77a15cd48be6a93c2e5831b7c590efd59ba73e626928290030190a2505050565b6000610977836110af565b151561098257600080fd5b61098b83611178565b61099684848461120e565b949350505050565b6060600a8054806020026020016040519081016040528092919081815260200182805480156109f657602002820191906000526020600020905b8154600160a060020a031681526001909101906020018083116109d8575b5050505050905090565b600354600160a060020a03163314610a1757600080fd5b6000818152600b602052604080822082815560018101839055600201805460ff191690555182917f4ee5f53e7c223913ecd9d2504fcfa0277500598fc6332461311bc48ecb2a138f91a250565b600554600160a060020a031681565b620186a081565b6000806000806000808611610a9657610a91610ddc565b610a98565b855b6000818152600b60205260409020805460018201546002909201549297509550935060ff169150509193509193565b336000908152600260209081526040808320600160a060020a0386168452909152812054808310610b1b57336000908152600260209081526040808320600160a060020a0388168452909152812055610b50565b610b2b818463ffffffff61138316565b336000908152600260209081526040808320600160a060020a03891684529091529020555b336000818152600260209081526040808320600160a060020a0389168085529083529281902054815190815290519293927f8c5be1e5ebec7d5bd14f71427d1e84f3dd0314c0f7b2291e5b200ac8c7c3b925929181900390910190a35060019392505050565b600160a060020a031660009081526020819052604090205490565b600354600160a060020a03163314610be857600080fd5b600354604051600160a060020a03909116907ff8df31144d9c2f0f6b59d69b8b98abd5459d07f2742c4df920b25aae33c6482090600090a26003805473ffffffffffffffffffffffffffffffffffffffff19169055565b600454600160a060020a031681565b600a5490565b600354600160a060020a031681565b6000610c6e30610bb6565b610c766108a1565b03905090565b600c805482908110610c8a57fe5b600091825260209091200154905081565b6007805460408051602060026001851615610100026000190190941693909304601f8101849004840282018401909252818152929183018282801561080b5780601f106107e05761010080835404028352916020019161080b565b6000610d01836110af565b1515610d0c57600080fd5b610d1583611178565b610d1f8383611395565b9392505050565b600354600160a060020a03163314610d3d57600080fd5b600160a060020a0381161515610d5257600080fd5b6004805473ffffffffffffffffffffffffffffffffffffffff1916600160a060020a0392909216919091179055565b6008805460408051602060026001851615610100026000190190941693909304601f8101849004840282018401909252818152929183018282801561080b5780601f106107e05761010080835404028352916020019161080b565b600c546000901515610df0575060006108a5565b600c54600019015b60008110610e4e576000600c82815481101515610e1157fe5b6000918252602080832090910154808352600b90915260409091206002015490915060ff1615610e445791506108a59050565b5060001901610df8565b5090565b600b6020526000908152604090208054600182015460029092015490919060ff1683565b600354600160a060020a03163314610e8d57600080fd5b600354604080517f70a082310000000000000000000000000000000000000000000000000000000081523060048201529051600160a060020a038085169363a9059cbb9391169184916370a08231916024808301926020929190829003018186803b158015610efb57600080fd5b505afa158015610f0f573d6000803e3d6000fd5b505050506040513d6020811015610f2557600080fd5b5051604080517c010000000000000000000000000000000000000000000000000000000063ffffffff8616028152600160a060020a03909316600484015260248301919091525160448083019260209291908290030181600087803b158015610f8d57600080fd5b505af1158015610fa1573d6000803e3d6000fd5b505050506040513d6020811015610fb757600080fd5b5050600354600160a060020a031680ff5b336000908152600260209081526040808320600160a060020a0386168452909152812054610ffc908363ffffffff61147416565b336000818152600260209081526040808320600160a060020a0389168085529083529281902085905580519485525191937f8c5be1e5ebec7d5bd14f71427d1e84f3dd0314c0f7b2291e5b200ac8c7c3b925929081900390910190a350600192915050565b600160a060020a03918216600090815260026020908152604080832093909416825291909152205490565b600354600160a060020a031633146110a357600080fd5b6110ac81611481565b50565b6000600160a060020a0382163014806110d55750600554600160a060020a038381169116145b80611172575060048054604080517fbb910c5d000000000000000000000000000000000000000000000000000000008152600160a060020a03868116948201949094529051929091169163bb910c5d91602480820192602092909190829003018186803b15801561114557600080fd5b505afa158015611159573d6000803e3d6000fd5b505050506040513d602081101561116f57600080fd5b50515b92915050565b600160a060020a03811660009081526009602052604090205460ff1615156110ac57600a805460018181019092557fc65a7bb8d6351c1cf70c95a316cc6a92839c986682d98bc35f958f4883f9d2a8018054600160a060020a03841673ffffffffffffffffffffffffffffffffffffffff1990911681179091556000908152600960205260409020805460ff1916909117905550565b600160a060020a03831660009081526020819052604081205482111561123357600080fd5b600160a060020a038416600090815260026020908152604080832033845290915290205482111561126357600080fd5b600160a060020a038316151561127857600080fd5b600160a060020a0384166000908152602081905260409020546112a1908363ffffffff61138316565b600160a060020a0380861660009081526020819052604080822093909355908516815220546112d6908363ffffffff61147416565b600160a060020a03808516600090815260208181526040808320949094559187168152600282528281203382529091522054611318908363ffffffff61138316565b600160a060020a03808616600081815260026020908152604080832033845282529182902094909455805186815290519287169391927fddf252ad1be2c89b69c2b068fc378daa952ba7f163c4a11628f55a4df523b3ef929181900390910190a35060019392505050565b60008282111561138f57fe5b50900390565b336000908152602081905260408120548211156113b157600080fd5b600160a060020a03831615156113c657600080fd5b336000908152602081905260409020546113e6908363ffffffff61138316565b3360009081526020819052604080822092909255600160a060020a03851681522054611418908363ffffffff61147416565b600160a060020a038416600081815260208181526040918290209390935580518581529051919233927fddf252ad1be2c89b69c2b068fc378daa952ba7f163c4a11628f55a4df523b3ef9281900390910190a350600192915050565b8181018281101561117257fe5b600160a060020a038116151561149657600080fd5b600354604051600160a060020a038084169216907f8be0079c531659141344cd1fd0a4f28419497f9722a3daafe3b4186f6b6457e090600090a36003805473ffffffffffffffffffffffffffffffffffffffff1916600160a060020a039290921691909117905556fea165627a7a723058206eac7362411dd322ea37e695f9c22b64bdc260579fc81ddad82d05f83422d2be0029a165627a7a72305820258117e01d35bfe440621c4ba5fdce3bc3f56d1c9053ade03f2ba7b065a535a40029",
  "source": "pragma solidity ^0.5.0;\n\n\nimport \"./Ownable.sol\";\nimport \"./CrowdOwned.sol\";\nimport \"./Registry.sol\";\nimport \"./CRWDToken.sol\";\nimport \"./CrowdOwnedExchange.sol\";\n\n\ncontract CrowdOwnedManager is Ownable {\n  /*\n   *  Events\n   */\n  event CrowdOwnedDeployed(address indexed contractAddress, string name, string symbol, string imageUrl);\n\n  /*\n  *  Storage\n  */\n  Registry public registry;\n\n  CRWDToken public crwdToken;\n\n  CrowdOwnedExchange public crowdOwnedExchange;\n\n  mapping(address => ContractData) public contractsData;\n\n  address[] public contractsAddresses;\n\n  struct ContractData {\n    string name;\n    string symbol;\n    bool isContractData;\n  }\n\n  /*\n  * modifier\n  */\n\n  /**\n   * @dev Throws if called by any account other than a registry notary.\n   */\n  modifier onlyRegistryNotary() {\n    require(registry.isNotaryAddress(msg.sender));\n    _;\n  }\n\n  /*\n  * Public functions\n  */\n  /// @dev Contract constructor\n  constructor(Registry _registry, CRWDToken _crwdToken, CrowdOwnedExchange _crowdOwnedExchange) public {\n    registry = _registry;\n    crwdToken = _crwdToken;\n    crowdOwnedExchange = _crowdOwnedExchange;\n  }\n\n  /**\n  * @dev deploy CrowdOwned contract\n  */\n  function deployCrowdOwned(string memory _name, string memory _symbol, string memory _imageUrl) public onlyRegistryNotary {\n    // deploy contract\n    CrowdOwned crowdOwned = new CrowdOwned(_name, _symbol, _imageUrl, msg.sender, registry, crowdOwnedExchange);\n\n    address contractAddress = address(crowdOwned);\n\n    contractsData[contractAddress].name = _name;\n    contractsData[contractAddress].symbol = _symbol;\n    contractsData[contractAddress].isContractData = true;\n    contractsAddresses.push(contractAddress);\n\n    // Log event\n    emit CrowdOwnedDeployed(contractAddress, _name, _symbol, _imageUrl);\n  }\n\n  /**\n  * @dev get all contract addresses\n  */\n  function getContractsAddresses() public view returns (address[] memory)  {\n    return contractsAddresses;\n  }\n\n}",
  "sourcePath": "/Users/didil/work/projects/ethereum/crwd-prototype/contracts/CrowdOwnedManager.sol",
  "compiler": {
    "name": "solc",
    "version": "0.5.0+commit.1d4f565a.Emscripten.clang"
  },
  "schemaVersion": "3.0.1",
  "updatedAt": "2019-01-15T09:58:49.526Z",
  "devdoc": {
    "methods": {
      "constructor": {
        "details": "Contract constructor"
      },
      "deployCrowdOwned(string,string,string)": {
        "details": "deploy CrowdOwned contract"
      },
      "getContractsAddresses()": {
        "details": "get all contract addresses"
      },
      "renounceOwnership()": {
        "details": "Allows the current owner to relinquish control of the contract."
      },
      "transferOwnership(address)": {
        "details": "Allows the current owner to transfer control of the contract to a newOwner.",
        "params": {
          "_newOwner": "The address to transfer ownership to."
        }
      }
    }
  },
  "userdoc": {
    "methods": {
      "renounceOwnership()": {
        "notice": "Renouncing to ownership will leave the contract without an owner. It will not be possible to call the functions with the `onlyOwner` modifier anymore."
      }
    }
  }
}