{
  "contractName": "Registry",
  "abi": [
    {
      "constant": true,
      "inputs": [
        {
          "name": "",
          "type": "address"
        }
      ],
      "name": "usersData",
      "outputs": [
        {
          "name": "state",
          "type": "uint8"
        },
        {
          "name": "ssn",
          "type": "string"
        },
        {
          "name": "isUserData",
          "type": "bool"
        }
      ],
      "payable": false,
      "stateMutability": "view",
      "type": "function",
      "signature": "0x0560ab69"
    },
    {
      "constant": true,
      "inputs": [
        {
          "name": "",
          "type": "uint256"
        }
      ],
      "name": "notaryAddresses",
      "outputs": [
        {
          "name": "",
          "type": "address"
        }
      ],
      "payable": false,
      "stateMutability": "view",
      "type": "function",
      "signature": "0x3e36c859"
    },
    {
      "constant": true,
      "inputs": [
        {
          "name": "",
          "type": "address"
        }
      ],
      "name": "notariesData",
      "outputs": [
        {
          "name": "name",
          "type": "string"
        },
        {
          "name": "websiteUrl",
          "type": "string"
        },
        {
          "name": "isNotaryData",
          "type": "bool"
        }
      ],
      "payable": false,
      "stateMutability": "view",
      "type": "function",
      "signature": "0x4bd1516c"
    },
    {
      "constant": true,
      "inputs": [
        {
          "name": "",
          "type": "uint256"
        }
      ],
      "name": "userAddresses",
      "outputs": [
        {
          "name": "",
          "type": "address"
        }
      ],
      "payable": false,
      "stateMutability": "view",
      "type": "function",
      "signature": "0x502c9bd5"
    },
    {
      "constant": false,
      "inputs": [],
      "name": "renounceOwnership",
      "outputs": [],
      "payable": false,
      "stateMutability": "nonpayable",
      "type": "function",
      "signature": "0x715018a6"
    },
    {
      "constant": true,
      "inputs": [],
      "name": "owner",
      "outputs": [
        {
          "name": "",
          "type": "address"
        }
      ],
      "payable": false,
      "stateMutability": "view",
      "type": "function",
      "signature": "0x8da5cb5b"
    },
    {
      "constant": false,
      "inputs": [
        {
          "name": "_newOwner",
          "type": "address"
        }
      ],
      "name": "transferOwnership",
      "outputs": [],
      "payable": false,
      "stateMutability": "nonpayable",
      "type": "function",
      "signature": "0xf2fde38b"
    },
    {
      "inputs": [],
      "payable": false,
      "stateMutability": "nonpayable",
      "type": "constructor",
      "signature": "constructor"
    },
    {
      "anonymous": false,
      "inputs": [
        {
          "indexed": true,
          "name": "userAddress",
          "type": "address"
        }
      ],
      "name": "AddressAdded",
      "type": "event",
      "signature": "0xa226db3f664042183ee0281230bba26cbf7b5057e50aee7f25a175ff45ce4d7f"
    },
    {
      "anonymous": false,
      "inputs": [
        {
          "indexed": true,
          "name": "userAddress",
          "type": "address"
        },
        {
          "indexed": false,
          "name": "state",
          "type": "uint8"
        }
      ],
      "name": "StateUpdated",
      "type": "event",
      "signature": "0xd313264b685b867149e7750c6aae9180c8f8ff924dec96ed9d555e0a6fde7f80"
    },
    {
      "anonymous": false,
      "inputs": [
        {
          "indexed": true,
          "name": "notaryaddress",
          "type": "address"
        },
        {
          "indexed": false,
          "name": "name",
          "type": "string"
        },
        {
          "indexed": false,
          "name": "websiteUrl",
          "type": "string"
        }
      ],
      "name": "NotaryAdded",
      "type": "event",
      "signature": "0x1abaae204bed55761adbd12708b80c451eda2886f469505843b461db4d5d6ef1"
    },
    {
      "anonymous": false,
      "inputs": [
        {
          "indexed": true,
          "name": "previousOwner",
          "type": "address"
        }
      ],
      "name": "OwnershipRenounced",
      "type": "event",
      "signature": "0xf8df31144d9c2f0f6b59d69b8b98abd5459d07f2742c4df920b25aae33c64820"
    },
    {
      "anonymous": false,
      "inputs": [
        {
          "indexed": true,
          "name": "previousOwner",
          "type": "address"
        },
        {
          "indexed": true,
          "name": "newOwner",
          "type": "address"
        }
      ],
      "name": "OwnershipTransferred",
      "type": "event",
      "signature": "0x8be0079c531659141344cd1fd0a4f28419497f9722a3daafe3b4186f6b6457e0"
    },
    {
      "constant": false,
      "inputs": [
        {
          "name": "_ssn",
          "type": "string"
        }
      ],
      "name": "addUserAddress",
      "outputs": [],
      "payable": false,
      "stateMutability": "nonpayable",
      "type": "function",
      "signature": "0xde329d4a"
    },
    {
      "constant": true,
      "inputs": [
        {
          "name": "_userAddress",
          "type": "address"
        }
      ],
      "name": "isUserData",
      "outputs": [
        {
          "name": "",
          "type": "bool"
        }
      ],
      "payable": false,
      "stateMutability": "view",
      "type": "function",
      "signature": "0xef99b17f"
    },
    {
      "constant": false,
      "inputs": [
        {
          "name": "_userAddress",
          "type": "address"
        },
        {
          "name": "_state",
          "type": "uint256"
        }
      ],
      "name": "setState",
      "outputs": [],
      "payable": false,
      "stateMutability": "nonpayable",
      "type": "function",
      "signature": "0x2469c14e"
    },
    {
      "constant": true,
      "inputs": [],
      "name": "getUserAddresses",
      "outputs": [
        {
          "name": "",
          "type": "address[]"
        }
      ],
      "payable": false,
      "stateMutability": "view",
      "type": "function",
      "signature": "0xa591efde"
    },
    {
      "constant": true,
      "inputs": [
        {
          "name": "_userAddress",
          "type": "address"
        }
      ],
      "name": "isVerifiedAndValid",
      "outputs": [
        {
          "name": "",
          "type": "bool"
        }
      ],
      "payable": false,
      "stateMutability": "view",
      "type": "function",
      "signature": "0xbb910c5d"
    },
    {
      "constant": false,
      "inputs": [
        {
          "name": "_address",
          "type": "address"
        },
        {
          "name": "_name",
          "type": "string"
        },
        {
          "name": "_websiteUrl",
          "type": "string"
        }
      ],
      "name": "addNotary",
      "outputs": [],
      "payable": false,
      "stateMutability": "nonpayable",
      "type": "function",
      "signature": "0xbe0b7d22"
    },
    {
      "constant": true,
      "inputs": [
        {
          "name": "_address",
          "type": "address"
        }
      ],
      "name": "isNotaryAddress",
      "outputs": [
        {
          "name": "",
          "type": "bool"
        }
      ],
      "payable": false,
      "stateMutability": "view",
      "type": "function",
      "signature": "0xa91079c2"
    },
    {
      "constant": true,
      "inputs": [],
      "name": "getNotaryAddresses",
      "outputs": [
        {
          "name": "",
          "type": "address[]"
        }
      ],
      "payable": false,
      "stateMutability": "view",
      "type": "function",
      "signature": "0x173c4398"
    }
  ],
  "bytecode": "0x608060405234801561001057600080fd5b5060008054600160a060020a031916331790556110e2806100326000396000f3fe6080604052600436106100da5763ffffffff7c01000000000000000000000000000000000000000000000000000000006000350416630560ab6981146100df578063173c4398146101aa5780632469c14e1461020f5780633e36c8591461024a5780634bd1516c14610290578063502c9bd5146103ac578063715018a6146103d65780638da5cb5b146103eb578063a591efde14610400578063a91079c214610415578063bb910c5d1461045c578063be0b7d221461048f578063de329d4a146105d9578063ef99b17f1461068c578063f2fde38b146106bf575b600080fd5b3480156100eb57600080fd5b506101126004803603602081101561010257600080fd5b5035600160a060020a03166106f2565b6040518084600381111561012257fe5b60ff1681526020018060200183151515158152602001828103825284818151815260200191508051906020019080838360005b8381101561016d578181015183820152602001610155565b50505050905090810190601f16801561019a5780820380516001836020036101000a031916815260200191505b5094505050505060405180910390f35b3480156101b657600080fd5b506101bf6107a8565b60408051602080825283518183015283519192839290830191858101910280838360005b838110156101fb5781810151838201526020016101e3565b505050509050019250505060405180910390f35b34801561021b57600080fd5b506102486004803603604081101561023257600080fd5b50600160a060020a03813516906020013561080b565b005b34801561025657600080fd5b506102746004803603602081101561026d57600080fd5b5035610910565b60408051600160a060020a039092168252519081900360200190f35b34801561029c57600080fd5b506102c3600480360360208110156102b357600080fd5b5035600160a060020a0316610938565b60405180806020018060200184151515158152602001838103835286818151815260200191508051906020019080838360005b8381101561030e5781810151838201526020016102f6565b50505050905090810190601f16801561033b5780820380516001836020036101000a031916815260200191505b50838103825285518152855160209182019187019080838360005b8381101561036e578181015183820152602001610356565b50505050905090810190601f16801561039b5780820380516001836020036101000a031916815260200191505b509550505050505060405180910390f35b3480156103b857600080fd5b50610274600480360360208110156103cf57600080fd5b5035610a42565b3480156103e257600080fd5b50610248610a50565b3480156103f757600080fd5b50610274610abc565b34801561040c57600080fd5b506101bf610acb565b34801561042157600080fd5b506104486004803603602081101561043857600080fd5b5035600160a060020a0316610b2b565b604080519115158252519081900360200190f35b34801561046857600080fd5b506104486004803603602081101561047f57600080fd5b5035600160a060020a0316610b4c565b34801561049b57600080fd5b50610248600480360360608110156104b257600080fd5b600160a060020a0382351691908101906040810160208201356401000000008111156104dd57600080fd5b8201836020820111156104ef57600080fd5b8035906020019184600183028401116401000000008311171561051157600080fd5b91908080601f016020809104026020016040519081016040528093929190818152602001838380828437600092019190915250929594936020810193503591505064010000000081111561056457600080fd5b82018360208201111561057657600080fd5b8035906020019184600183028401116401000000008311171561059857600080fd5b91908080601f016020809104026020016040519081016040528093929190818152602001838380828437600092019190915250929550610b7e945050505050565b3480156105e557600080fd5b50610248600480360360208110156105fc57600080fd5b81019060208101813564010000000081111561061757600080fd5b82018360208201111561062957600080fd5b8035906020019184600183028401116401000000008311171561064b57600080fd5b91908080601f016020809104026020016040519081016040528093929190818152602001838380828437600092019190915250929550610dad945050505050565b34801561069857600080fd5b50610448600480360360208110156106af57600080fd5b5035600160a060020a0316610e8f565b3480156106cb57600080fd5b50610248600480360360208110156106e257600080fd5b5035600160a060020a0316610eb0565b600160208181526000928352604092839020805481840180548651600261010097831615979097026000190190911695909504601f810185900485028601850190965285855260ff909116949193929091908301828280156107955780601f1061076a57610100808354040283529160200191610795565b820191906000526020600020905b81548152906001019060200180831161077857829003601f168201915b5050506002909301549192505060ff1683565b6060600480548060200260200160405190810160405280929190818152602001828054801561080057602002820191906000526020600020905b8154600160a060020a031681526001909101906020018083116107e2575b505050505090505b90565b61081433610b2b565b151561081f57600080fd5b61082882610e8f565b151561083357600080fd5b600160a060020a0382166000908152600160205260409020546108649060ff1682600381111561085f57fe5b610ed3565b151561086f57600080fd5b80600381111561087b57fe5b600160a060020a03831660009081526001602081905260409091208054909160ff19909116908360038111156108ad57fe5b021790555081600160a060020a03167fd313264b685b867149e7750c6aae9180c8f8ff924dec96ed9d555e0a6fde7f808260038111156108e957fe5b604051808260038111156108f957fe5b60ff16815260200191505060405180910390a25050565b600480548290811061091e57fe5b600091825260209091200154600160a060020a0316905081565b60036020908152600091825260409182902080548351601f600260001961010060018616150201909316929092049182018490048402810184019094528084529092918391908301828280156109cf5780601f106109a4576101008083540402835291602001916109cf565b820191906000526020600020905b8154815290600101906020018083116109b257829003601f168201915b505050505090806001018054600181600116156101000203166002900480601f0160208091040260200160405190810160405280929190818152602001828054600181600116156101000203166002900480156107955780601f1061076a57610100808354040283529160200191610795565b600280548290811061091e57fe5b600054600160a060020a03163314610a6757600080fd5b60008054604051600160a060020a03909116917ff8df31144d9c2f0f6b59d69b8b98abd5459d07f2742c4df920b25aae33c6482091a26000805473ffffffffffffffffffffffffffffffffffffffff19169055565b600054600160a060020a031681565b6060600280548060200260200160405190810160405280929190818152602001828054801561080057602002820191906000526020600020908154600160a060020a031681526001909101906020018083116107e2575050505050905090565b600160a060020a031660009081526003602052604090206002015460ff1690565b60006001600160a060020a03831660009081526001602052604090205460ff166003811115610b7757fe5b1492915050565b600054600160a060020a03163314610b9557600080fd5b600160a060020a0383161515610baa57600080fd5b81511515610bb757600080fd5b80511515610bc457600080fd5b610bcd83610b2b565b15610bd757600080fd5b600160a060020a03831660009081526003602090815260409091208351610c009285019061101e565b50600160a060020a03831660009081526003602090815260409091208251610c309260019092019184019061101e565b50600160a060020a0383166000818152600360209081526040808320600201805460ff1916600190811790915560048054918201815584527f8a35acfbc15ff81a39ae7d344fd709f28e8600b4aa8c65c6b64bfe7fe36bd19b01805473ffffffffffffffffffffffffffffffffffffffff191685179055805181815286519181019190915285517f1abaae204bed55761adbd12708b80c451eda2886f469505843b461db4d5d6ef19387938793928392838301926060850192908801918190849084905b83811015610d0c578181015183820152602001610cf4565b50505050905090810190601f168015610d395780820380516001836020036101000a031916815260200191505b50838103825284518152845160209182019186019080838360005b83811015610d6c578181015183820152602001610d54565b50505050905090810190601f168015610d995780820380516001836020036101000a031916815260200191505b5094505050505060405180910390a2505050565b80511515610dba57600080fd5b610dc333610e8f565b15610dcd57600080fd5b336000908152600160208181526040909220805460ff191681558351610dfb9391909201919084019061101e565b503360008181526001602081905260408083206002908101805460ff1916841790558054928301815583527f405787fa12a823e0f2b7631cc41b3ba8828b3321ca811111fa75cd3aa3bb5ace909101805473ffffffffffffffffffffffffffffffffffffffff191684179055517fa226db3f664042183ee0281230bba26cbf7b5057e50aee7f25a175ff45ce4d7f9190a250565b600160a060020a031660009081526001602052604090206002015460ff1690565b600054600160a060020a03163314610ec757600080fd5b610ed081610fa1565b50565b600080836003811115610ee257fe5b148015610f0f57506001826003811115610ef857fe5b1480610f0f57506003826003811115610f0d57fe5b145b15610f1c57506001610f9b565b6001836003811115610f2a57fe5b148015610f5757506002826003811115610f4057fe5b1480610f5757506003826003811115610f5557fe5b145b15610f6457506001610f9b565b6002836003811115610f7257fe5b148015610f8a57506001826003811115610f8857fe5b145b15610f9757506001610f9b565b5060005b92915050565b600160a060020a0381161515610fb657600080fd5b60008054604051600160a060020a03808516939216917f8be0079c531659141344cd1fd0a4f28419497f9722a3daafe3b4186f6b6457e091a36000805473ffffffffffffffffffffffffffffffffffffffff1916600160a060020a0392909216919091179055565b828054600181600116156101000203166002900490600052602060002090601f016020900481019282601f1061105f57805160ff191683800117855561108c565b8280016001018555821561108c579182015b8281111561108c578251825591602001919060010190611071565b5061109892915061109c565b5090565b61080891905b8082111561109857600081556001016110a256fea165627a7a72305820628b7be7fa802fe508b269f44fb3ab236bdea6e8f37a8f871b326cd0f9abdc590029",
  "source": "pragma solidity ^0.5.0;\n\n\nimport \"./Ownable.sol\";\n\n\ncontract Registry is Ownable {\n  /*\n   *  Events\n   */\n  event AddressAdded(address indexed userAddress);\n\n  event StateUpdated(address indexed userAddress, State state);\n\n  event NotaryAdded(address indexed notaryaddress, string name, string websiteUrl);\n\n  /*\n   *  Storage\n   */\n\n  mapping(address => UserData) public usersData;\n\n  address[] public userAddresses;\n\n  enum State {NEW, VERIFIED, EXPIRED, DENIED}\n\n  struct UserData {\n    State state;\n    string ssn;\n    bool isUserData;\n  }\n\n  mapping(address => NotaryData) public notariesData;\n\n  address[] public notaryAddresses;\n\n  struct NotaryData {\n    string name;\n    string websiteUrl;\n    bool isNotaryData;\n  }\n\n  /*\n  * Modifiers\n  */\n\n  /**\n   * @dev Throws if called by an account that is not a notary address.\n   */\n  modifier onlyNotary() {\n    require(isNotaryAddress(msg.sender));\n    _;\n  }\n\n  /*\n   * Public functions\n   */\n  /// @dev Contract constructor\n  constructor() public {\n  }\n\n  /// @dev Allows to add an address to the registry\n  /// @param _ssn user social security number\n  function addUserAddress(string memory _ssn) public {\n    // check ssn not null\n    require(bytes(_ssn).length != 0);\n    // avoid overwrite\n    require(!isUserData(msg.sender));\n\n    // create new entry\n    usersData[msg.sender].state = State.NEW;\n    usersData[msg.sender].ssn = _ssn;\n    usersData[msg.sender].isUserData = true;\n    userAddresses.push(msg.sender);\n\n    // Log event\n    emit AddressAdded(msg.sender);\n  }\n\n  /// @dev Checks if a user address exists\n  /// @param _userAddress user address to be checked\n  function isUserData(address _userAddress) public view returns (bool) {\n    return usersData[_userAddress].isUserData;\n  }\n\n  /// @dev Set state on user address\n  /// @param _userAddress user address\n  /// @param _state new state\n  function setState(address _userAddress, uint _state) public onlyNotary {\n    // make sure user address exists\n    require(isUserData(_userAddress));\n    // make sure valid state transition\n    require(isValidStateTransition(usersData[_userAddress].state, State(_state)));\n\n    usersData[_userAddress].state = State(_state);\n\n    // Log event\n    emit StateUpdated(_userAddress, State(_state));\n  }\n\n  /// @dev Checks if a state transition is valid\n  /// @param _fromState old state\n  /// @param _toState new state\n  function isValidStateTransition(State _fromState, State _toState) internal pure returns (bool) {\n    if (_fromState == State.NEW && (_toState == State.VERIFIED || _toState == State.DENIED)) {\n      return true;\n    }\n\n    if (_fromState == State.VERIFIED && (_toState == State.EXPIRED || _toState == State.DENIED)) {\n      return true;\n    }\n\n    if (_fromState == State.EXPIRED && (_toState == State.VERIFIED)) {\n      return true;\n    }\n\n    return false;\n  }\n\n  /// @dev fetch user addresses\n  function getUserAddresses() public view returns (address[] memory)  {\n    return userAddresses;\n  }\n\n  /// @dev Checks if a user address is verified and valid\n  /// @param _userAddress user address to be checked\n  function isVerifiedAndValid(address _userAddress) public view returns (bool) {\n    return usersData[_userAddress].state == State.VERIFIED;\n  }\n\n  /// @dev Allows to add a notary to the registry\n  /// @param _name Notary name\n  /// @param _websiteUrl Notary website url\n  function addNotary(address _address, string memory _name, string memory _websiteUrl) public onlyOwner {\n    // check _address not null\n    require(_address != address(0));\n    // check _name not null\n    require(bytes(_name).length != 0);\n    // check _websiteUrl not null\n    require(bytes(_websiteUrl).length != 0);\n    // avoid overwrite\n    require(!isNotaryAddress(_address));\n\n    // create new entry\n    notariesData[_address].name = _name;\n    notariesData[_address].websiteUrl = _websiteUrl;\n    notariesData[_address].isNotaryData = true;\n    notaryAddresses.push(_address);\n\n    // Log event\n    emit NotaryAdded(_address, _name, _websiteUrl);\n  }\n\n  /// @dev Checks if a notary address exists\n  /// @param _address notary address to be checked\n  function isNotaryAddress(address _address) public view returns (bool) {\n    return notariesData[_address].isNotaryData;\n  }\n\n  /// @dev fetch notary addresses\n  function getNotaryAddresses() public view returns (address[] memory)  {\n    return notaryAddresses;\n  }\n\n}\n",
  "sourcePath": "/Users/didil/work/projects/ethereum/crwd-prototype/contracts/Registry.sol",
  "compiler": {
    "name": "solc",
    "version": "0.5.0+commit.1d4f565a.Emscripten.clang"
  },
  "schemaVersion": "3.0.1",
  "updatedAt": "2019-01-15T09:58:49.540Z",
  "devdoc": {
    "methods": {
      "addNotary(address,string,string)": {
        "details": "Allows to add a notary to the registry",
        "params": {
          "_name": "Notary name",
          "_websiteUrl": "Notary website url"
        }
      },
      "addUserAddress(string)": {
        "details": "Allows to add an address to the registry",
        "params": {
          "_ssn": "user social security number"
        }
      },
      "constructor": {
        "details": "Contract constructor"
      },
      "getNotaryAddresses()": {
        "details": "fetch notary addresses"
      },
      "getUserAddresses()": {
        "details": "fetch user addresses"
      },
      "isNotaryAddress(address)": {
        "details": "Checks if a notary address exists",
        "params": {
          "_address": "notary address to be checked"
        }
      },
      "isUserData(address)": {
        "details": "Checks if a user address exists",
        "params": {
          "_userAddress": "user address to be checked"
        }
      },
      "isVerifiedAndValid(address)": {
        "details": "Checks if a user address is verified and valid",
        "params": {
          "_userAddress": "user address to be checked"
        }
      },
      "renounceOwnership()": {
        "details": "Allows the current owner to relinquish control of the contract."
      },
      "setState(address,uint256)": {
        "details": "Set state on user address",
        "params": {
          "_state": "new state",
          "_userAddress": "user address"
        }
      },
      "transferOwnership(address)": {
        "details": "Allows the current owner to transfer control of the contract to a newOwner.",
        "params": {
          "_newOwner": "The address to transfer ownership to."
        }
      }
    }
  },
  "userdoc": {
    "methods": {
      "renounceOwnership()": {
        "notice": "Renouncing to ownership will leave the contract without an owner. It will not be possible to call the functions with the `onlyOwner` modifier anymore."
      }
    }
  }
}