{
  "contractName": "VotingManager",
  "abi": [
    {
      "constant": false,
      "inputs": [],
      "name": "renounceOwnership",
      "outputs": [],
      "payable": false,
      "stateMutability": "nonpayable",
      "type": "function",
      "signature": "0x715018a6"
    },
    {
      "constant": true,
      "inputs": [],
      "name": "owner",
      "outputs": [
        {
          "name": "",
          "type": "address"
        }
      ],
      "payable": false,
      "stateMutability": "view",
      "type": "function",
      "signature": "0x8da5cb5b"
    },
    {
      "constant": true,
      "inputs": [
        {
          "name": "",
          "type": "address"
        },
        {
          "name": "",
          "type": "uint256"
        }
      ],
      "name": "proposals",
      "outputs": [
        {
          "name": "creator",
          "type": "address"
        },
        {
          "name": "title",
          "type": "string"
        },
        {
          "name": "description",
          "type": "string"
        },
        {
          "name": "start",
          "type": "uint256"
        },
        {
          "name": "deadline",
          "type": "uint256"
        },
        {
          "name": "tokensCirculatingSupply",
          "type": "uint256"
        },
        {
          "name": "yesWeightedTotal",
          "type": "uint256"
        },
        {
          "name": "noWeightedTotal",
          "type": "uint256"
        },
        {
          "name": "abstainWeightedTotal",
          "type": "uint256"
        },
        {
          "name": "isProposal",
          "type": "bool"
        }
      ],
      "payable": false,
      "stateMutability": "view",
      "type": "function",
      "signature": "0x8e23a2f5"
    },
    {
      "constant": false,
      "inputs": [
        {
          "name": "_newOwner",
          "type": "address"
        }
      ],
      "name": "transferOwnership",
      "outputs": [],
      "payable": false,
      "stateMutability": "nonpayable",
      "type": "function",
      "signature": "0xf2fde38b"
    },
    {
      "inputs": [],
      "payable": false,
      "stateMutability": "nonpayable",
      "type": "constructor",
      "signature": "constructor"
    },
    {
      "anonymous": false,
      "inputs": [
        {
          "indexed": true,
          "name": "creator",
          "type": "address"
        },
        {
          "indexed": false,
          "name": "id",
          "type": "uint256"
        }
      ],
      "name": "NewProposal",
      "type": "event",
      "signature": "0x8dfa4a39b973cacc42c5d14d9461d66fd1fda5ea696f7d2a3c44fd9d7f11d04f"
    },
    {
      "anonymous": false,
      "inputs": [
        {
          "indexed": true,
          "name": "previousOwner",
          "type": "address"
        }
      ],
      "name": "OwnershipRenounced",
      "type": "event",
      "signature": "0xf8df31144d9c2f0f6b59d69b8b98abd5459d07f2742c4df920b25aae33c64820"
    },
    {
      "anonymous": false,
      "inputs": [
        {
          "indexed": true,
          "name": "previousOwner",
          "type": "address"
        },
        {
          "indexed": true,
          "name": "newOwner",
          "type": "address"
        }
      ],
      "name": "OwnershipTransferred",
      "type": "event",
      "signature": "0x8be0079c531659141344cd1fd0a4f28419497f9722a3daafe3b4186f6b6457e0"
    },
    {
      "constant": false,
      "inputs": [
        {
          "name": "_crowdOwned",
          "type": "address"
        },
        {
          "name": "_title",
          "type": "string"
        },
        {
          "name": "_description",
          "type": "string"
        },
        {
          "name": "_duration",
          "type": "uint256"
        }
      ],
      "name": "createProposal",
      "outputs": [],
      "payable": false,
      "stateMutability": "nonpayable",
      "type": "function",
      "signature": "0x0f7e5256"
    },
    {
      "constant": false,
      "inputs": [
        {
          "name": "_tokenAddress",
          "type": "address"
        },
        {
          "name": "_proposalId",
          "type": "uint256"
        },
        {
          "name": "_choice",
          "type": "uint256"
        }
      ],
      "name": "vote",
      "outputs": [],
      "payable": false,
      "stateMutability": "nonpayable",
      "type": "function",
      "signature": "0x2a4a1b73"
    },
    {
      "constant": true,
      "inputs": [
        {
          "name": "_tokenAddress",
          "type": "address"
        }
      ],
      "name": "getProposalsLength",
      "outputs": [
        {
          "name": "length",
          "type": "uint256"
        }
      ],
      "payable": false,
      "stateMutability": "view",
      "type": "function",
      "signature": "0x13ad4608"
    },
    {
      "constant": true,
      "inputs": [
        {
          "name": "_tokenAddress",
          "type": "address"
        },
        {
          "name": "_proposalId",
          "type": "uint256"
        }
      ],
      "name": "getProposal",
      "outputs": [
        {
          "name": "creator",
          "type": "address"
        },
        {
          "name": "title",
          "type": "string"
        },
        {
          "name": "description",
          "type": "string"
        },
        {
          "name": "start",
          "type": "uint256"
        },
        {
          "name": "deadline",
          "type": "uint256"
        },
        {
          "name": "tokensCirculatingSupply",
          "type": "uint256"
        },
        {
          "name": "yesWeightedTotal",
          "type": "uint256"
        },
        {
          "name": "noWeightedTotal",
          "type": "uint256"
        },
        {
          "name": "abstainWeightedTotal",
          "type": "uint256"
        },
        {
          "name": "isProposal",
          "type": "bool"
        }
      ],
      "payable": false,
      "stateMutability": "view",
      "type": "function",
      "signature": "0xcfa38da7"
    },
    {
      "constant": true,
      "inputs": [
        {
          "name": "_tokenAddress",
          "type": "address"
        },
        {
          "name": "_proposalId",
          "type": "uint256"
        },
        {
          "name": "_ownerAddress",
          "type": "address"
        }
      ],
      "name": "getProposalTokensOwned",
      "outputs": [
        {
          "name": "tokensOwned",
          "type": "uint256"
        }
      ],
      "payable": false,
      "stateMutability": "view",
      "type": "function",
      "signature": "0xda5ad81a"
    },
    {
      "constant": true,
      "inputs": [
        {
          "name": "_tokenAddress",
          "type": "address"
        },
        {
          "name": "_proposalId",
          "type": "uint256"
        },
        {
          "name": "_ownerAddress",
          "type": "address"
        }
      ],
      "name": "hasVoted",
      "outputs": [
        {
          "name": "voted",
          "type": "bool"
        }
      ],
      "payable": false,
      "stateMutability": "view",
      "type": "function",
      "signature": "0x0fae38ac"
    },
    {
      "constant": true,
      "inputs": [
        {
          "name": "_tokenAddress",
          "type": "address"
        },
        {
          "name": "_proposalId",
          "type": "uint256"
        }
      ],
      "name": "getMyVote",
      "outputs": [
        {
          "name": "voteChoice",
          "type": "uint256"
        }
      ],
      "payable": false,
      "stateMutability": "view",
      "type": "function",
      "signature": "0x240516f2"
    },
    {
      "constant": true,
      "inputs": [
        {
          "name": "_tokenAddress",
          "type": "address"
        },
        {
          "name": "_proposalId",
          "type": "uint256"
        }
      ],
      "name": "getYesResults",
      "outputs": [
        {
          "name": "",
          "type": "uint256"
        }
      ],
      "payable": false,
      "stateMutability": "view",
      "type": "function",
      "signature": "0x3ca0ec39"
    },
    {
      "constant": true,
      "inputs": [
        {
          "name": "_tokenAddress",
          "type": "address"
        },
        {
          "name": "_proposalId",
          "type": "uint256"
        }
      ],
      "name": "isClosed",
      "outputs": [
        {
          "name": "closed",
          "type": "bool"
        }
      ],
      "payable": false,
      "stateMutability": "view",
      "type": "function",
      "signature": "0x25781867"
    }
  ],
  "bytecode": "0x608060405234801561001057600080fd5b5060008054600160a060020a0319163317905561167d806100326000396000f3fe6080604052600436106100ab5763ffffffff60e060020a6000350416630f7e525681146100b05780630fae38ac146101fe57806313ad460814610255578063240516f21461029a57806325781867146102d35780632a4a1b731461030c5780633ca0ec391461034b578063715018a6146103845780638da5cb5b146103995780638e23a2f5146103ca578063cfa38da71461052f578063da5ad81a14610568578063f2fde38b146105ab575b600080fd5b3480156100bc57600080fd5b506101fc600480360360808110156100d357600080fd5b600160a060020a0382351691908101906040810160208201356401000000008111156100fe57600080fd5b82018360208201111561011057600080fd5b8035906020019184600183028401116401000000008311171561013257600080fd5b91908080601f016020809104026020016040519081016040528093929190818152602001838380828437600092019190915250929594936020810193503591505064010000000081111561018557600080fd5b82018360208201111561019757600080fd5b803590602001918460018302840111640100000000831117156101b957600080fd5b91908080601f01602080910402602001604051908101604052809392919081815260200183838082843760009201919091525092955050913592506105de915050565b005b34801561020a57600080fd5b506102416004803603606081101561022157600080fd5b50600160a060020a0381358116916020810135916040909101351661084a565b604080519115158252519081900360200190f35b34801561026157600080fd5b506102886004803603602081101561027857600080fd5b5035600160a060020a03166108a7565b60408051918252519081900360200190f35b3480156102a657600080fd5b50610288600480360360408110156102bd57600080fd5b50600160a060020a0381351690602001356108c2565b3480156102df57600080fd5b50610241600480360360408110156102f657600080fd5b50600160a060020a038135169060200135610921565b34801561031857600080fd5b506101fc6004803603606081101561032f57600080fd5b50600160a060020a038135169060208101359060400135610968565b34801561035757600080fd5b506102886004803603604081101561036e57600080fd5b50600160a060020a038135169060200135610c6a565b34801561039057600080fd5b506101fc610d47565b3480156103a557600080fd5b506103ae610db3565b60408051600160a060020a039092168252519081900360200190f35b3480156103d657600080fd5b50610403600480360360408110156103ed57600080fd5b50600160a060020a038135169060200135610dc2565b604051808b600160a060020a0316600160a060020a0316815260200180602001806020018a81526020018981526020018881526020018781526020018681526020018581526020018415151515815260200183810383528c818151815260200191508051906020019080838360005b8381101561048a578181015183820152602001610472565b50505050905090810190601f1680156104b75780820380516001836020036101000a031916815260200191505b5083810382528b5181528b516020918201918d019080838360005b838110156104ea5781810151838201526020016104d2565b50505050905090810190601f1680156105175780820380516001836020036101000a031916815260200191505b509c5050505050505050505050505060405180910390f35b34801561053b57600080fd5b506104036004803603604081101561055257600080fd5b50600160a060020a038135169060200135610f53565b34801561057457600080fd5b506102886004803603606081101561058b57600080fd5b50600160a060020a038135811691602081013591604090910135166111a3565b3480156105b757600080fd5b506101fc600480360360208110156105ce57600080fd5b5035600160a060020a03166111fd565b604080517f70a082310000000000000000000000000000000000000000000000000000000081523360048201529051600091600160a060020a038716916370a0823191602480820192602092909190829003018186803b15801561064157600080fd5b505afa158015610655573d6000803e3d6000fd5b505050506040513d602081101561066b57600080fd5b50511161067757600080fd5b6000811161068457600080fd5b836000610690826108a7565b600160a060020a0383166000908152600160208181526040928390208351610140810185523381529182018a90529281018890529201925090606081016106df426103e863ffffffff61122016565b81526020016107066103e86106fa428963ffffffff61124916565b9063ffffffff61122016565b815260006020808301829052604083018290526060830182905260808301829052600160a09093018390528454808401808755958352918190208451600d90930201805473ffffffffffffffffffffffffffffffffffffffff1916600160a060020a03909316929092178255838101518051929361078c93908501929190910190611557565b50604082015180516107a8916002840191602090910190611557565b50606082015160038201556080820151600482015560a0820151600582015560c0820151600982015560e0820151600a820155610100820151600b82015561012090910151600c909101805460ff19169115159190911790555061080c8682611256565b60408051828152905133917f8dfa4a39b973cacc42c5d14d9461d66fd1fda5ea696f7d2a3c44fd9d7f11d04f919081900360200190a2505050505050565b600160a060020a03831660009081526001602052604081208054600019850190811061087257fe5b60009182526020808320600160a060020a03861684526007600d90930201919091019052604090205460ff1690509392505050565b600160a060020a031660009081526001602052604090205490565b600160a060020a0382166000908152600160205260408120805460001984019081106108ea57fe5b600091825260208083203384526008600d90930201919091019052604090205460ff16600281111561091857fe5b90505b92915050565b600160a060020a03821660009081526001602052604081208054429190600019850190811061094c57fe5b90600052602060002090600d0201600401541115905092915050565b600160a060020a03831660009081526001602052604090208054600019840190811061099057fe5b60009182526020909120600c600d90920201015460ff1615156109b257600080fd5b6109bc8383610921565b156109c657600080fd5b60006109d38484336111a3565b116109dd57600080fd5b6109e883833361084a565b156109f257600080fd5b6000816002811115610a0057fe5b6002811115610a0b57fe5b1480610a2d57506001816002811115610a2057fe5b6002811115610a2b57fe5b145b80610a4e57506002816002811115610a4157fe5b6002811115610a4c57fe5b145b1515610a5957600080fd5b6000610a668484336111a3565b90506000826002811115610a7657fe5b6002811115610a8157fe5b1415610ad157600160a060020a038416600090815260016020526040902080548291906000198601908110610ab257fe5b600091825260209091206009600d909202010180549091019055610b9f565b6001826002811115610adf57fe5b6002811115610aea57fe5b1415610b3a57600160a060020a038416600090815260016020526040902080548291906000198601908110610b1b57fe5b60009182526020909120600a600d909202010180549091019055610b9f565b6002826002811115610b4857fe5b6002811115610b5357fe5b1415610b9f57600160a060020a038416600090815260016020526040902080548291906000198601908110610b8457fe5b60009182526020909120600b600d9092020101805490910190555b816002811115610bab57fe5b600160a060020a038516600090815260016020526040902080546000198601908110610bd357fe5b600091825260208083203384526008600d9093020191909101905260409020805460ff19166001836002811115610c0657fe5b0217905550600160a060020a038416600090815260016020819052604090912080546000198601908110610c3657fe5b60009182526020808320338452600d92909202909101600701905260409020805460ff191691151591909117905550505050565b600160a060020a038216600090815260016020526040812080546000198401908110610c9257fe5b90600052602060002090600d0201600a01546001600085600160a060020a0316600160a060020a0316815260200190815260200160002060018403815481101515610cd957fe5b90600052602060002090600d020160090154016001600085600160a060020a0316600160a060020a0316815260200190815260200160002060018403815481101515610d2157fe5b90600052602060002090600d020160090154606402811515610d3f57fe5b049392505050565b600054600160a060020a03163314610d5e57600080fd5b60008054604051600160a060020a03909116917ff8df31144d9c2f0f6b59d69b8b98abd5459d07f2742c4df920b25aae33c6482091a26000805473ffffffffffffffffffffffffffffffffffffffff19169055565b600054600160a060020a031681565b600160205281600052604060002081815481101515610ddd57fe5b6000918252602091829020600d9091020180546001808301805460408051601f6002600019968516156101000296909601909316949094049182018790048702840187019052808352600160a060020a03909316965092945092830182828015610e885780601f10610e5d57610100808354040283529160200191610e88565b820191906000526020600020905b815481529060010190602001808311610e6b57829003601f168201915b50505060028085018054604080516020601f6000196101006001871615020190941695909504928301859004850281018501909152818152959695945090925090830182828015610f1a5780601f10610eef57610100808354040283529160200191610f1a565b820191906000526020600020905b815481529060010190602001808311610efd57829003601f168201915b505050506003830154600484015460058501546009860154600a870154600b880154600c90980154969794969395509193909260ff168a565b60006060806000806000806000806000610f6b6115d5565b600160a060020a038d16600090815260016020526040902080546000198e01908110610f9357fe5b60009182526020918290206040805161014081018252600d9093029091018054600160a060020a03168352600180820180548451601f600260001995841615610100029590950190921693909304908101879004870283018701909452838252939491938583019391929091908301828280156110515780601f1061102657610100808354040283529160200191611051565b820191906000526020600020905b81548152906001019060200180831161103457829003601f168201915b5050509183525050600282810180546040805160206001841615610100026000190190931694909404601f810183900483028501830190915280845293810193908301828280156110e35780601f106110b8576101008083540402835291602001916110e3565b820191906000526020600020905b8154815290600101906020018083116110c657829003601f168201915b5050505050815260200160038201548152602001600482015481526020016005820154815260200160098201548152602001600a8201548152602001600b8201548152602001600c820160009054906101000a900460ff1615151515815250509050806000015181602001518260400151836060015184608001518560a001518660c001518760e001518861010001518961012001518898508797509a509a509a509a509a509a509a509a509a509a50509295989b9194979a5092959850565b600160a060020a0383166000908152600160205260408120805460001985019081106111cb57fe5b60009182526020808320600160a060020a03861684526006600d90930201919091019052604090205490509392505050565b600054600160a060020a0316331461121457600080fd5b61121d816114da565b50565b60008215156112315750600061091b565b5081810281838281151561124157fe5b041461091b57fe5b8181018281101561091b57fe5b600181101561126457600080fd5b600160a060020a03821660009081526001602052604081208054600019840190811061128c57fe5b90600052602060002090600d0201905082600160a060020a0316639358928b6040518163ffffffff1660e060020a02815260040160206040518083038186803b1580156112d857600080fd5b505afa1580156112ec573d6000803e3d6000fd5b505050506040513d602081101561130257600080fd5b50516005820155604080517f869dc3930000000000000000000000000000000000000000000000000000000081529051600091600160a060020a0386169163869dc39391600480820192602092909190829003018186803b15801561136657600080fd5b505afa15801561137a573d6000803e3d6000fd5b505050506040513d602081101561139057600080fd5b5051905060005b818110156114d357600085600160a060020a0316630f310b17836040518263ffffffff1660e060020a0281526004018082815260200191505060206040518083038186803b1580156113e857600080fd5b505afa1580156113fc573d6000803e3d6000fd5b505050506040513d602081101561141257600080fd5b50519050600160a060020a03808216908716146114ca5785600160a060020a03166370a08231826040518263ffffffff1660e060020a0281526004018082600160a060020a0316600160a060020a0316815260200191505060206040518083038186803b15801561148257600080fd5b505afa158015611496573d6000803e3d6000fd5b505050506040513d60208110156114ac57600080fd5b5051600160a060020a03821660009081526006860160205260409020555b50600101611397565b5050505050565b600160a060020a03811615156114ef57600080fd5b60008054604051600160a060020a03808516939216917f8be0079c531659141344cd1fd0a4f28419497f9722a3daafe3b4186f6b6457e091a36000805473ffffffffffffffffffffffffffffffffffffffff1916600160a060020a0392909216919091179055565b828054600181600116156101000203166002900490600052602060002090601f016020900481019282601f1061159857805160ff19168380011785556115c5565b828001600101855582156115c5579182015b828111156115c55782518255916020019190600101906115aa565b506115d1929150611634565b5090565b610140604051908101604052806000600160a060020a0316815260200160608152602001606081526020016000815260200160008152602001600081526020016000815260200160008152602001600081526020016000151581525090565b61164e91905b808211156115d1576000815560010161163a565b9056fea165627a7a723058209058e8695b017821b039cb8ab39b096b8f8d976457263bf970f55adb2bdc36090029",
  "source": "pragma solidity ^0.5.0;\n\nimport \"./SafeMath.sol\";\nimport \"./Ownable.sol\";\nimport \"./CrowdOwned.sol\";\n\ncontract VotingManager is Ownable {\n  using SafeMath for uint;\n\n  /*\n   * Events\n   */\n  event NewProposal(address indexed creator, uint id);\n\n  /*\n   * Storage\n   */\n\n  // Mapping of Token address => Proposals\n  mapping(address => Proposal[]) public proposals;\n\n  struct Proposal {\n    address creator;\n    string title;\n    string description;\n    uint start;\n    uint deadline;\n    uint tokensCirculatingSupply;\n    mapping(address => uint) tokensOwned;\n    mapping(address => bool) voted;\n    mapping(address => VoteChoice) votes;\n    uint yesWeightedTotal;\n    uint noWeightedTotal;\n    uint abstainWeightedTotal;\n    bool isProposal;\n  }\n\n\n  enum VoteChoice {YES, NO, ABSTAIN}\n\n  /*\n   * Public functions\n   */\n\n  /**\n  * @dev Contract constructor\n  */\n  constructor() public {\n\n  }\n\n  /**\n  * @dev Create Proposal\n  * @param _crowdOwned Crowd Owned Address\n  * @param _title Title\n  * @param _description Description\n  * @param _duration Duration in seconds\n  */\n  function createProposal(CrowdOwned _crowdOwned, string memory _title, string memory _description, uint _duration) public {\n    // check creator is owner\n    require(_crowdOwned.balanceOf(msg.sender) > 0);\n\n    // check duration is not null\n    require(_duration > 0);\n\n    address crowdOwnedAddress = address(_crowdOwned);\n\n    // create proposal\n    uint proposalId = getProposalsLength(crowdOwnedAddress) + 1;\n\n  /*  Proposal storage proposal;\n\n    proposal.creator = msg.sender;\n    proposal.title = _title;\n    proposal.description = _description;\n    proposal.start = block.timestamp.mul(1000); // convert to milliseconds\n    proposal.deadline = (block.timestamp.add(_duration)).mul(1000);\n    proposal.isProposal = true;*/\n\n\n    proposals[crowdOwnedAddress].push(Proposal({\n      creator : msg.sender,\n      title : _title,\n      description : _description,\n      start : block.timestamp.mul(1000), // convert to milliseconds\n      deadline : (block.timestamp.add(_duration)).mul(1000),\n      isProposal : true,\n      tokensCirculatingSupply : 0,\n      noWeightedTotal : 0,\n      yesWeightedTotal : 0,\n      abstainWeightedTotal : 0\n      }));\n\n    // take token circulation/ownership snapshot\n    saveTokensOwned(_crowdOwned, proposalId);\n\n    emit NewProposal(msg.sender, proposalId);\n  }\n\n  /**\n  * @dev Take Tokens Ownership Snapshot\n  * @param _proposalId Proposal Id\n  */\n  function saveTokensOwned(CrowdOwned _crowdOwned, uint _proposalId) internal {\n    require(_proposalId >= 1);\n\n    Proposal storage proposal = proposals[address(_crowdOwned)][_proposalId - 1];\n\n    // save circulating supply at the proposal creation\n    proposal.tokensCirculatingSupply = _crowdOwned.circulatingSupply();\n\n    uint ownerAddressesLength = _crowdOwned.getOwnerAddressesLength();\n\n    // save tokens owned snapshot\n    for (uint i = 0; i < ownerAddressesLength; i++) {\n      address ownerAddress = _crowdOwned.ownerAddresses(i);\n\n      // do not take tokens owned by the contract into account\n      if (ownerAddress != address(_crowdOwned)) {\n        proposal.tokensOwned[ownerAddress] = _crowdOwned.balanceOf(ownerAddress);\n      }\n    }\n  }\n\n  /**\n  * @dev Vote for proposal\n  * @param _tokenAddress Token Address\n  * @param _proposalId Proposal id\n  * @param _choice Vote Choice\n  */\n  function vote(address _tokenAddress, uint _proposalId, uint _choice) public {\n    // check proposal exists\n    require(proposals[_tokenAddress][_proposalId - 1].isProposal);\n    // check proposal still ongoing\n    require(!isClosed(_tokenAddress, _proposalId));\n    // check voter was owner at proposal creation time\n    require(getProposalTokensOwned(_tokenAddress, _proposalId, msg.sender) > 0);\n    // check hasn't voted already\n    require(!hasVoted(_tokenAddress, _proposalId, msg.sender));\n    // check vote valid\n    require(VoteChoice(_choice) == VoteChoice.YES || VoteChoice(_choice) == VoteChoice.NO || VoteChoice(_choice) == VoteChoice.ABSTAIN);\n\n    uint weightedVote = getProposalTokensOwned(_tokenAddress, _proposalId, msg.sender);\n\n    // count vote in\n    if (VoteChoice(_choice) == VoteChoice.YES) {\n      proposals[_tokenAddress][_proposalId - 1].yesWeightedTotal += weightedVote;\n    }\n    else if (VoteChoice(_choice) == VoteChoice.NO) {\n      proposals[_tokenAddress][_proposalId - 1].noWeightedTotal += weightedVote;\n    }\n    else if (VoteChoice(_choice) == VoteChoice.ABSTAIN) {\n      proposals[_tokenAddress][_proposalId - 1].abstainWeightedTotal += weightedVote;\n    }\n\n    // save choice\n    proposals[_tokenAddress][_proposalId - 1].votes[msg.sender] = VoteChoice(_choice);\n\n    // mark has voted\n    proposals[_tokenAddress][_proposalId - 1].voted[msg.sender] = true;\n  }\n\n  /**\n  * @dev Get number of proposals\n  * @param _tokenAddress Token Address\n  */\n  function getProposalsLength(address _tokenAddress) view public returns (uint length){\n    return proposals[_tokenAddress].length;\n  }\n\n  /**\n  * @dev Get proposal\n  * @param _tokenAddress Token Address\n  * @param _proposalId Proposal id\n  */\n  function getProposal(address _tokenAddress, uint _proposalId) view public\n  returns (\n    address creator,\n    string memory title,\n    string memory description,\n    uint start,\n    uint deadline,\n    uint tokensCirculatingSupply,\n    uint yesWeightedTotal,\n    uint noWeightedTotal,\n    uint abstainWeightedTotal,\n    bool isProposal\n  ){\n    Proposal memory proposal = proposals[_tokenAddress][_proposalId - 1];\n\n    return (\n    proposal.creator,\n    proposal.title,\n    proposal.description,\n    proposal.start,\n    proposal.deadline,\n    proposal.tokensCirculatingSupply,\n    proposal.yesWeightedTotal,\n    proposal.noWeightedTotal,\n    proposal.abstainWeightedTotal,\n    proposal.isProposal\n    );\n  }\n\n  /**\n  * @dev Get tokens owned by address at proposal creation time\n  * @param _tokenAddress Token Address\n  * @param _proposalId Proposal id\n  * @param _ownerAddress Owner Address\n  */\n  function getProposalTokensOwned(address _tokenAddress, uint _proposalId, address _ownerAddress) view public returns (uint tokensOwned){\n\n    return proposals[_tokenAddress][_proposalId - 1].tokensOwned[_ownerAddress];\n  }\n\n  /**\n  * @dev checks if address has voted\n  * @param _tokenAddress Token Address\n  * @param _proposalId Proposal id\n  * @param _ownerAddress Owner Address\n  */\n  function hasVoted(address _tokenAddress, uint _proposalId, address _ownerAddress) view public returns (bool voted){\n\n    return proposals[_tokenAddress][_proposalId - 1].voted[_ownerAddress];\n  }\n\n  /**\n  * @dev get my vote\n  * @param _tokenAddress Token Address\n  * @param _proposalId Proposal id\n  */\n  function getMyVote(address _tokenAddress, uint _proposalId) view public returns (uint voteChoice){\n\n    return uint(proposals[_tokenAddress][_proposalId - 1].votes[msg.sender]);\n  }\n\n  /**\n  * @dev get yes weighted percentage\n  * @param _tokenAddress Token Address\n  * @param _proposalId Proposal id\n  */\n  function getYesResults(address _tokenAddress, uint _proposalId) view public returns (uint){\n\n    return (proposals[_tokenAddress][_proposalId - 1].yesWeightedTotal * 100) / (proposals[_tokenAddress][_proposalId - 1].yesWeightedTotal + proposals[_tokenAddress][_proposalId - 1].noWeightedTotal);\n  }\n\n  /**\n   * @dev checks if proposal voting closed\n   * @param _tokenAddress Token Address\n   * @param _proposalId Proposal id\n   */\n  function isClosed(address _tokenAddress, uint _proposalId) view public returns (bool closed){\n\n    return proposals[_tokenAddress][_proposalId - 1].deadline <= block.timestamp;\n  }\n\n}",
  "sourcePath": "/Users/didil/work/projects/ethereum/crwd-prototype/contracts/VotingManager.sol",
  "compiler": {
    "name": "solc",
    "version": "0.5.0+commit.1d4f565a.Emscripten.clang"
  },
  "schemaVersion": "3.0.1",
  "updatedAt": "2019-01-17T04:21:01.922Z",
  "devdoc": {
    "methods": {
      "constructor": {
        "details": "Contract constructor"
      },
      "createProposal(address,string,string,uint256)": {
        "details": "Create Proposal",
        "params": {
          "_crowdOwned": "Crowd Owned Address",
          "_description": "Description",
          "_duration": "Duration in seconds",
          "_title": "Title"
        }
      },
      "getMyVote(address,uint256)": {
        "details": "get my vote",
        "params": {
          "_proposalId": "Proposal id",
          "_tokenAddress": "Token Address"
        }
      },
      "getProposal(address,uint256)": {
        "details": "Get proposal",
        "params": {
          "_proposalId": "Proposal id",
          "_tokenAddress": "Token Address"
        }
      },
      "getProposalTokensOwned(address,uint256,address)": {
        "details": "Get tokens owned by address at proposal creation time",
        "params": {
          "_ownerAddress": "Owner Address",
          "_proposalId": "Proposal id",
          "_tokenAddress": "Token Address"
        }
      },
      "getProposalsLength(address)": {
        "details": "Get number of proposals",
        "params": {
          "_tokenAddress": "Token Address"
        }
      },
      "getYesResults(address,uint256)": {
        "details": "get yes weighted percentage",
        "params": {
          "_proposalId": "Proposal id",
          "_tokenAddress": "Token Address"
        }
      },
      "hasVoted(address,uint256,address)": {
        "details": "checks if address has voted",
        "params": {
          "_ownerAddress": "Owner Address",
          "_proposalId": "Proposal id",
          "_tokenAddress": "Token Address"
        }
      },
      "isClosed(address,uint256)": {
        "details": "checks if proposal voting closed",
        "params": {
          "_proposalId": "Proposal id",
          "_tokenAddress": "Token Address"
        }
      },
      "renounceOwnership()": {
        "details": "Allows the current owner to relinquish control of the contract."
      },
      "transferOwnership(address)": {
        "details": "Allows the current owner to transfer control of the contract to a newOwner.",
        "params": {
          "_newOwner": "The address to transfer ownership to."
        }
      },
      "vote(address,uint256,uint256)": {
        "details": "Vote for proposal",
        "params": {
          "_choice": "Vote Choice",
          "_proposalId": "Proposal id",
          "_tokenAddress": "Token Address"
        }
      }
    }
  },
  "userdoc": {
    "methods": {
      "renounceOwnership()": {
        "notice": "Renouncing to ownership will leave the contract without an owner. It will not be possible to call the functions with the `onlyOwner` modifier anymore."
      }
    }
  }
}